:100000000C94E5050C940D060C940D060C940D064D
:100010000C940D060C940D060C940D060C940D0614
:100020000C940D060C940D060C940D060C940D0604
:100030000C940D060C940D060C940D060C940D06F4
:100040000C94631A0C940D060C940D060C940D067A
:100050000C940D060C940D060C940D060C940D06D4
:100060000C940F0E0C940D0600407A10F35A00A069
:10007000724E18090010A5D4E80000E87648170071
:1000800000E40B54020000CA9A3B000000E1F505B1
:10009000000080969800000040420F000000A086FB
:1000A00001000000102700000000E803000000002D
:1000B0006400000000000A000000000001000000D1
:1000C00000002C76D888DC674F0823DFC1DFAE59EB
:1000D000E1B1B796E5E3E453C63AE651997696E87E
:1000E000E6C28426EB898C9B62ED407C6FFCEFBC02
:1000F0009C9F40F2BAA56FA5F490055A2AF75C932D
:100100006B6CF9676DC11BFCE0E40D47FEF520E662
:10011000B500D0ED902E0300943577050080841E45
:10012000080000204E0A000000C80C333333330FA0
:10013000986E12831141EF8D2114893BE65516CF3D
:10014000FEE6DB18D1844B381BF77C1D901DA4BB49
:10015000E424203284725E228100C9F124ECA1E5FE
:100160003D27DB40A4A62EAFDA0281DA1281DA0243
:10017000818F2000A1C8D300408DAED580A800009B
:10018000600000000000000000000000000000E02F
:100190000000000000000000000000000001E0007E
:1001A00000000000000000000000000001F000005E
:1001B000000000000000000000000003F00000004C
:1001C0000000000000000000000007F00000000038
:1001D00000000000000000000007F8000000000020
:1001E00000000000000000000FF800000003C00045
:1001F0007E000001E0007F0FF800000003C000FE59
:10020000000001E000FFEFF800000003C000FE0066
:100210000001E000FFFFF800000003C000F0000054
:10022000000F007FFE7FC0000003C000F000000050
:100230000F003FFE7FF83FF1FBCFFCFEF3BC3DEF2C
:10024000E01FFE7FFF7FFBFFDFFEFEFFBC3DEFE018
:100250001FC6FFFF7FFBFFDFFEFEFFBC3DEFE00F91
:10026000E3C7FE787BC3DE1EF0FFBC3DEF0007FF57
:1002700087FC787BC3DE1EF0F83C3DEF0001FFFFFA
:10028000F0007BC3C01EF0F03C3DEF0001F37FE0C7
:100290003FFBC3CFFEF0F03C3DEF0003E33F807F28
:1002A000FBC3DFFEF0F03C3DEF0007E73C00787B4E
:1002B000C3DE1EF0F03C3DEF0007FFBE00787BC3BD
:1002C000DE1EF0F03C3DEF0007FFFE00787BC3DE52
:1002D0001EF0F03C3DEF000FFFFE007FFBFFDFFE56
:1002E000F0F03FFDEFE00FFFFF007FFBFFDFFEF0D0
:1002F000F03FFDEFE00FF9FF003E79F9CF9EF0F0FF
:100300001F3DE7E01FF1FF000000000000000000BB
:100310000000001F80FF007FFFFFFFFFFFFFFFFFC8
:10032000FFE01C007F007FFFFFFFFEB46D888D188B
:10033000E000001F007FFFFFFFFE95AD7DB577E079
:1003400000000F007FFFFFFFFEA5AD9D8D19E000AF
:100350000006007FFFFFFFFEB5ADEDB57EE00000BB
:100360000000000180000000000000000000038089
:1003700000000000000000000007C00000000000B6
:100380000000000007C00000000000000000000F97
:10039000C00000000000000000001FE0000000009E
:1003A00000000000001FE00000000000000000004E
:1003B0003FE00000000000000000003FF0000000EF
:1003C0000000000000007FF0000000000000001F9F
:1003D000F87FF0000000000000003FFE7FF000000A
:1003E00000000000003FFF7FF00000000000000060
:1003F0001FFFFBE0000000000000000FFFF9FFC03E
:100400000000000000000FFFF9FFF80000000000EE
:100410000007FFF1FFFF00000000000003FC73FF76
:10042000FF80000000000001FE3FFFFF8000000091
:10043000000000FF1E0FFF000000000000007FFE14
:100440001FFC000000000000003FFFFFF80000005C
:10045000000000000FDFFFE0000000000000001FB0
:1004600019FFC0000000000000003F3CFF0000003A
:1004700000000000007E7CF800000000000000008A
:100480007FFE7C0000000000000000FFFFFC000079
:10049000000000000000FFFFFE0000000000000060
:1004A00000FFFFFE0000000000000001FFEFFE0063
:1004B00000000000000001FFCFFE0000000000006F
:1004C0000003FF07FE0000000000000003FC07FE21
:1004D0000000000000000003F003FE000000000028
:1004E0000000018000FE000000000000000000008D
:1004F0007E000000000000000000003E0000000040
:100500000000000000000C00000000000007800058
:10051000FC000003C0000000078001FC000003C0D5
:10052000000000078001FC000003C00000000780FD
:1005300001E00000001E000000078001E000000054
:100540001E007FE3F79FF9FDE7787BDFC0FFF7FF31
:10055000BFFDFDFF787BDFC0FFF7FFBFFDFDFF782C
:100560007BDFC0F0F787BC3DE1FF787BDE00F0F772
:1005700087BC3DE1F0787BDE0000F787803DE1E05D
:10058000787BDE007FF7879FFDE1E0787BDE00FF70
:10059000F787BFFDE1E0787BDE00F0F787BC3DE147
:1005A000E0787BDE00F0F787BC3DE1E0787BDE00A1
:1005B000F0F787BC3DE1E0787BDE00FFF7FFBFFD91
:1005C000E1E07FFBDFC0FFF7FFBFFDE1E07FFBDF86
:1005D000C07CF3F39F3DE1E03E7BCFC00000000014
:1005E00000000000000000FFFFFFFFFFFFFFFFFF14
:1005F000FFC0FFFFFFFFFD68DB111A31C0FFFFFFE7
:10060000FFFD2B5AFB6AEFC0FFFFFFFFFD4B5B3B7B
:100610001A33C0FFFFFFFFFD6B5BDB6AFDC0000309
:10062000020500030501040602041F1C1F1E1F1EF5
:100630001F1F1E1F1E1F005EBCE2613FDD83C29CA8
:100640007E20A3FD1F41009D23BE46DB65F88C1173
:10065000AF32CA57E97400000000240027002A00C6
:1006600000000000250028002B0000000008000208
:10067000010000030407000000000000000000016A
:1006800003070F1F3F7F0080C0E0F0F8FCFE000072
:100690000000003E5B4F5B3E3E6B4F6B3E1C3E7C62
:1006A0003E1C183C7E3C181C577D571C1C5E7F5E10
:1006B0001C00183C1800FFE7C3E7FF0018241800CF
:1006C000FFE7DBE7FF30483A060E26297929264066
:1006D0007F050507407F05253F5A3CE73C5A7F3E92
:1006E0001C1C08081C1C3E7F14227F22145F5F0024
:1006F0005F5F06097F017F006689956A60606060C0
:100700006094A2FFA29408047E040810207E2010AA
:1007100008082A1C08081C2A08081E101010100CB3
:100720001E0C1E0C30383E3830060E3E0E06000001
:1007300000000000005F00000007000700147F14A5
:100740007F14242A7F2A1223130864623649562014
:10075000500008070300001C2241000041221C0039
:100760002A1C7F1C2A08083E0808008070300008F8
:1007700008080808000060600020100804023E51CC
:1007800049453E00427F400072494949462141495E
:100790004D331814127F1027454545393C4A4949C5
:1007A0003141211109073649494936464949291E2F
:1007B000000014000000403400000008142241141E
:1007C00014141414004122140802015909063E4170
:1007D0005D594E7C1211127C7F494949363E414198
:1007E00041227F4141413E7F494949417F090909F1
:1007F000013E414151737F0808087F00417F41005D
:100800002040413F017F081422417F404040407F0B
:10081000021C027F7F0408107F3E4141413E7F0958
:100820000909063E4151215E7F0919294626494999
:10083000493203017F01033F4040403F1F204020D9
:100840001F3F4038403F63140814630304780403D7
:100850006159494D43007F41414102040810200085
:100860004141417F040201020440404040400003F6
:1008700007080020545478407F28444438384444C2
:100880004428384444287F385454541800087E09BA
:100890000218A4A49C787F0804047800447D4000DA
:1008A0002040403D007F1028440000417F40007CF4
:1008B000047804787C080404783844444438FC18EC
:1008C00024241818242418FC7C08040408485454D0
:1008D000542404043F44243C4040207C1C204020FD
:1008E0001C3C4030403C44281028444C9090907C64
:1008F0004464544C44000836410000007700000076
:100900004136080002010204023C2623263C1EA1B7
:10091000A161123A4040207A385454555921555516
:1009200079412254547842215554784020545579C5
:10093000400C1E5272123955555559395454545958
:1009400039555454580000457C410002457D420011
:1009500001457C407D1211127DF0282528F07C5441
:100960005545002054547C547C0A097F493249493A
:1009700049323A4444443A324A4848303A414121A3
:100980007A3A42402078009DA0A07D3D4242423DFF
:100990003D4040403D3C24FF2424487E4943662B93
:1009A0002FFC2F2BFF0929F620C0887E0903205435
:1009B0005479410000447D413048484A3238404033
:1009C000227A007A0A0A727D0D19317D2629292F93
:1009D00028262929292630484D40203808080808AB
:1009E00008080808382F10C8ACBA2F102834FA00AD
:1009F000007B000008142A142222142A140855002F
:100A0000550055AA55AA55AAFF55FF55FF000000ED
:100A1000FF00101010FF00141414FF001010FF004E
:100A2000FF1010F010F0141414FC001414F700FF61
:100A30000000FF00FF1414F404FC141417101F101E
:100A4000101F101F1414141F00101010F0000000CD
:100A5000001F101010101F10101010F010000000D8
:100A6000FF101010101010101010FF10000000FFE9
:100A7000140000FF00FF00001F10170000FC04F42A
:100A800014141710171414F404F40000FF00F714E2
:100A9000141414141414F700F71414141714101069
:100AA0001F101F141414F4141010F010F000001F85
:100AB000101F0000001F14000000FC140000F010C4
:100AC000F01010FF10FF141414FF141010101F006A
:100AD000000000F010FFFFFFFFFFF0F0F0F0F0FF6C
:100AE000FFFF0000000000FFFF0F0F0F0F0F384443
:100AF000443844FC4A4A4A347E02020606027E0218
:100B00007E0263554941633844443C04407E201EC4
:100B10002006027E020299A5E7A5991C2A492A1CF3
:100B20004C7201724C304A4D4D303048784830BCE0
:100B3000625A463D3E494949007E0101017E2A2A0A
:100B40002A2A2A44445F444440514A444040444A8B
:100B500051400000FF0103E080FF000008086B6BBC
:100B6000083612362436060F090F06000018180042
:100B700000001010003040FF0101001F01011E00A5
:100B8000191D1712003C3C3C3C00000000002200F4
:100B9000FF210000000000230026002900040404B7
:100BA0000404040404020202020202030303030316
:100BB00003010204081020408001020408102001F3
:100BC00002040810200089207A2011241FBECFEFD4
:100BD000D8E0DEBFCDBF22E0A4E8B1E001C01D92A5
:100BE000A13DB207E1F711E0A0E0B1E0E4ECFEE4E2
:100BF00002C005900D92A438B107D9F715E0C4EEF4
:100C0000D5E004C02197FE010E944C25C33ED107C8
:100C1000C9F70E94AD1A0C9455270C940000CF928E
:100C2000DF92EF92FF920F931F93CF93DF936C01AC
:100C30007A018B01C0E0D0E0CE15DF0581F0D8014C
:100C40006D918D01D601ED91FC910190F081E02D27
:100C5000C6010995892B11F02196EECF7E01C701BF
:100C6000DF91CF911F910F91FF90EF90DF90CF9088
:100C70000895FC0177FDB9C08085918568177907D3
:100C80000CF0B3C057FDB1C0828593854817590752
:100C90000CF008958689823079F484819581DC0195
:100CA000A61BB70BBD016150710986819781DC01DC
:100CB000A41BB50BAD010EC0833009F084C06427BE
:100CC0007527CA0186279727682779274681578184
:100CD000481B590B415051092130310531F048F181
:100CE0002230310509F44AC00895CA0157FD07961C
:100CF0009C01A3E035952795AA95E1F7A481B581DC
:100D00002A9FC0012B9F900D3A9F900D1124680FD0
:100D1000791F078CF0A1E02DE60FF71F47705527CC
:100D200081E090E001C0880F4A95EAF79081892B15
:100D300048C0CA0157FD07969C0193E03595279559
:100D40009A95E1F7A481B5812A9FC0012B9F900D50
:100D50003A9F900D1124680F791F078CF0A1E02DA8
:100D6000E60FF71F4770552781E090E001C0880F1C
:100D70004A95EAF780959081892323C0CA0157FDDF
:100D800007969C0183E0359527958A95E1F7A48124
:100D9000B5812A9FC0012B9F900D3A9F900D112481
:100DA000680F791F078CF0A1E02DE60FF71F477041
:100DB000552781E090E001C0880F4A95EAF79081BD
:100DC000892780830895813009F086CF64277527AD
:100DD000462757276427752784819581DC01A61B48
:100DE000B70BBD016150710977CF08950895FC01DB
:100DF0006370668B8481958126813781613039F0FB
:100E0000633029F09187808733872287089531875F
:100E100020879387828708956F927F928F929F9207
:100E2000AF92BF92CF92DF92EF92FF920F931F93F8
:100E3000CF93DF93EC014B015A0169013801E8813E
:100E4000F9810284F385E02D0995E881F981028812
:100E5000F389E02D87019601A501B401CE01099522
:100E6000A501460D571D41505109E881F9810288BD
:100E7000F389E02D9601B401CE010995E881F9814D
:100E80000088F189E02D9301A501B401CE010995F7
:100E9000C80CD91CB60161507109E881F98100883C
:100EA000F189E02D9301A501CE010995E881F98131
:100EB0000688F789E02DCE01DF91CF911F910F9128
:100EC000FF90EF90DF90CF90BF90AF909F908F906A
:100ED0007F906F9009948F929F92AF92BF92CF9222
:100EE000DF92EF92FF920F931F93CF93DF934C010A
:100EF0006B015A01E901DC01ED91FC916217730766
:100F000081F40417150724F48B2D5801042F182F92
:100F10000A191B0998012F5F3F4F048CF58DE02DB6
:100F200012C04017510709F52617370724F48D2DF5
:100F30006901C62FD82F9E012C193D092F5F3F4F05
:100F4000068CF78DE02D8701A501B601C401099536
:100F5000DF91CF911F910F91FF90EF90DF90CF9095
:100F6000BF90AF909F908F9008950284F385E02DFD
:100F70000995D401ED91FC910488F589E02D9E013D
:100F8000A501B601C4010995D401ED91FC91068833
:100F9000F789E02DC401DF91CF911F910F91FF9050
:100FA000EF90DF90CF90BF90AF909F908F9009947B
:100FB000EF92FF920F931F93DC011A960D911C91F3
:100FC0001B9718962D913C911997ED91FC9100A0DB
:100FD000F1A1E02D7B0140E050E060E070E0099578
:100FE0001F910F91FF90EF9008954F925F926F9233
:100FF0007F928F929F92AF92BF92CF92DF92EF92A9
:10100000FF920F931F93CF93DF936C012B015A0133
:1010100039014801DC01ED91FC910284F385E02D5A
:101020000995E201640C751CD601ED91FC91C61581
:10103000D7055CF40088F189E02D87019401A501B2
:10104000BE01C60109952196EFCF0688F789E02DEC
:10105000C601DF91CF911F910F91FF90EF90DF902C
:10106000CF90BF90AF909F908F907F906F905F9048
:101070004F9009948F929F92AF92BF92CF92DF923E
:10108000EF92FF920F931F93CF93DF93EC015B01DD
:101090004A016901E881F9810284F385E02D09950F
:1010A00095012C0D3D1D21503109E881F9810488FD
:1010B000F589E02D78018401A401B501CE010995DF
:1010C000E881F9810688F789E02DCE01DF91CF9183
:1010D0001F910F91FF90EF90DF90CF90BF90AF9056
:1010E0009F908F9009948F929F92AF92BF92CF92D0
:1010F000DF92EF92FF920F931F93CF93DF93EC0158
:101100005B014A0169017801E881F9810284F38574
:10111000E02D0995C80CD91C860101501109E88100
:10112000F9810488F589E02D9501A401B501CE016E
:101130000995E881F9810688F789E02DCE01DF91D4
:10114000CF911F910F91FF90EF90DF90CF90BF90C4
:10115000AF909F908F9009940895EF92FF920F9314
:101160001F93DC01ED91FC9100A0F1A1E02D099508
:101170001F910F91FF90EF9008950F931F93DC0143
:10118000ED91FC91068CF78DE02D09951F910F9143
:1011900008950E9439270F931F93CF93DF93EC019B
:1011A00088819981009729F02A813B81261737078A
:1011B00088F48B016F5F7F4F0E947326009761F068
:1011C000998388831B830A832C813D81232B11F40F
:1011D000FC01108281E001C080E0DF91CF911F917E
:1011E0000F9108950F931F93CF93DF93DC015696D1
:1011F000EC915697E23071F0E330E9F0E13079F5A7
:10120000FB0114960D90BC91A02DA41BB50BA21B45
:10121000B30B18C0EC01EC81FD81E61BF70BBF019D
:1012200061507109EE81FF81DF01A41BB50BAD0197
:10123000421B530B14C0DA01EC01EE81FF81E61B67
:10124000F70B3197F7FD0DC0EC014E815F81E4177C
:10125000F5073CF4AF01BD010E948E1502C00E944B
:10126000F515DF91CF911F910F9108950F931F9363
:10127000DC015696EC915697E23061F0E33009F1CB
:10128000E13081F51496ED91FC911597E41BF50B77
:10129000319723C0DC011496ED91FC911597DF0185
:1012A000A61BB70BBD01DC011696ED91FC911797BB
:1012B000DF01A41BB50BAD0141505109621B730B3B
:1012C00011C0FA01DC0116964D915C911797DA0175
:1012D000A61BB70BBD01621B730BAB01BF010E94C4
:1012E000F5150CC057FD0AC0DC011696ED91FC9176
:1012F00017974E175F0714F40E948E151F910F91D8
:1013000008958F929F92AF92CF92EF92FF920F9398
:101310001F93CF93DF93EC01262F898D9A8D009731
:1013200009F042C06A3059F41D861C862D898E85CD
:101330009F8538E0239F800D911D112443C06D309F
:1013400009F4AAC08F898823C9F03C898C859D85C2
:1013500046E0349F800D911D11244885598548171A
:10136000590764F41D861C863D898E859F8548E05B
:10137000349F800D911D11249F878E87EA88FB88FA
:10138000088919894E855F856C857D85AD88CC88F7
:10139000CE010E945A132C898C859D8536E0239FAF
:1013A000800D911D11243EC06A3079F41D861C8683
:1013B0002D89FC013696E4918E859F852E9F800DA8
:1013C000911D11249F878E8767C06D3009F464C01A
:1013D000FC0134963491631708F45EC03196E491B1
:1013E000E61708F459C0462F431B342FFC013296F0
:1013F0008590949047E0349F800C911C1124F40157
:10140000329634913196E491332311F0E1110DC0FD
:10141000F4013496E4912C898C859D85E29F800DA2
:10142000911D11249D878C8737C0F4013596449116
:101430005F89552319F15C89E32FF0E0E40FF11D7A
:1014400047FDFA955E9FB0015F9F700D11244C859A
:101450005D85460F571F688579856417750774F495
:101460001D861C863D89FC013696E4918E859F85FC
:101470003E9F800D911D11249F878E87EA88FB88EF
:10148000088919894E855F856C857D85AD88CC88F6
:10149000CE010E945A13BCCF81E090E0DF91CF9142
:1014A0001F910F91FF90EF90CF90AF909F908F90F2
:1014B0000895EF92FF920F931F93CF93DF936115DF
:1014C000710511F480E01CC041155105C1F07B018C
:1014D000EC018C819D818A01080F191FB801CE0192
:1014E0000E94CB08882371F3288139818C819D81EA
:1014F000B701820F931F0E944E271D830C8381E04A
:10150000DF91CF911F910F91FF90EF900895CF93AE
:10151000DF93EC0188819981009711F00E94EA2500
:10152000198218821D821C821B821A82DF91CF9140
:101530000895CF93DF93EC016115710561F0FB0114
:1015400001900020E9F73197AF01461B570B0E942D
:10155000590A811103C0CE010E94870ACE01DF9192
:10156000CF910895EF92FF920F931F93CF93DF9344
:10157000EC017B018A01BA010E94CB08811104C0F1
:10158000CE010E94870A07C01D830C83B7018881A2
:1015900099810E944E27CE01DF91CF911F910F912B
:1015A000FF90EF900895DC0180E0615098F02D915C
:1015B000982F9227E92FEF70F0E0EA5CF94F249121
:1015C00092959F70E92FF0E0EA5BF94FE491822F4A
:1015D0008E27EBCF0895FC0190810180F281E02DF0
:1015E000F8948181892B81832281892F80952823FA
:1015F0002283A7E0B0E01197F1F721818223818354
:10160000A3E2B0E01197F1F780817894EFECF0E07D
:101610003197F1F7982381E009F480E00895FC0107
:1016200090810180F281E02D892F809560FF12C0AA
:10163000F8942281822382838181892B8183A3E292
:10164000B0E01197F1F78281982B9283789487ED1F
:1016500090E011C0F8942281822382838181892BBA
:101660008183AFEFB0E01197F1F78281982B9283DD
:1016700078948FE090E00197F1F70895DF92EF9270
:10168000FF920F931F93CF93DF93EC01D62EE42E9E
:1016900008E010E0FF24F39461E08D2D8F2109F420
:1016A00060E0CE010E940F0BFF0C01501109A1F761
:1016B000E11010C0F894E981FA81918188818095C8
:1016C00089238183E981FA819281888180958923A8
:1016D00082837894DF91CF911F910F91FF90EF90CB
:1016E000DF900895EF92FF920F931F93CF93DF93B4
:1016F0008C017B0140E065E50E943E0BE70188E03C
:10170000E80EF11C699140E0C8010E943E0BCE1525
:10171000DF05C1F7DF91CF911F910F91FF90EF90FF
:101720000895DC012C911196ED91FC911297F8949B
:101730008181922F90958923818378948DE743E06E
:1017400050E0815021F1DA011197F1F73081322315
:10175000C1F3F8948281892382838181822B8183E2
:101760007894ABE7B7E01197F1F7F894818198236B
:10177000918383E191E00197F1F78081282381E053
:1017800009F080E07894E3E6F6E03197F1F7089508
:1017900008958EBD00000DB407FEFDCF8EB50895EF
:1017A0001F93CF93DF93FC01858D968D009701F1F8
:1017B000162FEF0161A10E94990F8D8D9E8DDC0186
:1017C000ED91FC910190F081E02D60E009958D8D07
:1017D0009E8DDC01ED91FC910190F081E02D612F57
:1017E00009958D8D9E8DDF91CF911F910C943D0FAA
:1017F000A5A5B6A59C9183A9809589238C93838DFB
:10180000948D892B31F0862FDF91CF911F910C940D
:10181000C90B28E030E080E8A1A5B2A591A9462F28
:10182000482319F04C91942B03C04C91909594232C
:101830009C93A3A5B4A54C9192A9942B9C93A3A58A
:10184000B4A54C9192A9909594239C938695215090
:10185000310911F7DF91CF911F9108958CBD9DBD86
:1018600008951F93CF93DF93EC01162F8D8D9E8DDE
:10187000892BB1F02FA938AD49AD5AAD60E074E2C3
:1018800084EF90E00E942A25DA01C9014097A1095E
:10189000B109B695A795979587958093B8000FC025
:1018A0008B8D9C8D892B21F08DA99EA90E942E0CD9
:1018B000EFA5F8A990818CA98095892380831111C7
:1018C00002C066EA01C067EACE010E94D00B8D8D8E
:1018D0009E8D892BB1F02BAD3CAD4DAD5EAD60E082
:1018E00074E284EF90E00E942A25DA01C901409752
:1018F000A109B109B695A795979587958093B800EA
:1019000006C0EFA5F8A990818CA9892B8083DF916F
:10191000CF911F9108950F931F93DC01ED91FC91DE
:10192000048CF58DE02D09951F910F910895DC0130
:10193000ED91FC910084F185E02D09942F923F9266
:101940004F925F926F927F928F929F92AF92BF92CF
:10195000CF92DF92EF92FF920F931F93CF93DF937B
:1019600000D000D000D0CDB7DEB72C017E836D83D0
:101970006A015901C801FC82EB824801841A950A68
:1019800097FE03C091948194910835012D813E8189
:10199000621A730A77FE03C0719461947108681427
:1019A00079045CF43A2D2B2D5C01832F922F3D811D
:1019B0002E81DE82CD82C32ED22EAD81BE81AA16AB
:1019C000BB065CF43C2D2D2D6C01832F922F3D81A5
:1019D0002E81BE82AD82A32EB22E85012D813E8145
:1019E000021B130B1C012C183D0837FE03C0319459
:1019F00021943108780117FF03C03FEFE31AF30A7F
:101A0000F594E794C816D9062CF08FEF9FEF9A83D0
:101A1000898304C0A1E0B0E0BA83A9832D813E810F
:101A2000A216B30624F1D201ED91FC910484F58550
:101A3000E02D2B813C816814790424F44D815E8172
:101A4000B60103C0A6016D817E81C2010995E2182D
:101A5000F308F7FE06C029813A81C20ED31EE00EBC
:101A6000F11E8D819E8101969E838D83D7CF269610
:101A70000FB6F894DEBF0FBECDBFDF91CF911F919F
:101A80000F91FF90EF90DF90CF90BF90AF909F901D
:101A90008F907F906F905F904F903F902F90089520
:101AA00085ED8093BC008091BC0084FDFCCF10923A
:101AB000340208954091DD01262F30E0240F311DBE
:101AC00021323105DCF4209134022430C9F4FC01C8
:101AD00080E090E0861758F43091DD012191DC011F
:101AE000A554BE4FA30FB11D2C930196F3CF809147
:101AF000DD01680F6093DD0180E0089581E00895C5
:101B000082E0089508950895E091360280913502AB
:101B1000E81730F4F0E0E95CFD4F808190E0089533
:101B20008FEF9FEF089590913602809135029817BC
:101B300050F4E92FF0E0E95CFD4F208130E09F5F39
:101B40009093360202C02FEF3FEFC90108958091B4
:101B5000350290E020913602821B91090895CF92C0
:101B6000DF92EF92FF920F931F93CF93DF937C014D
:101B7000CB018A012091B801222389F0EB016B018E
:101B8000C40ED51ECC15DD0569F06991D701ED9124
:101B9000FC910190F081E02DC7010995F3CF642FEE
:101BA0000E945A0DC801DF91CF911F910F91FF90B4
:101BB000EF90DF90CF900895CF93DF931F92CDB732
:101BC000DEB769832091B8012223D1F02091B901B9
:101BD000203240F021E030E0FC013383228380E0BA
:101BE00090E015C08091BA01E82FF0E0E856FE4F72
:101BF000998190838F5F8093BA018093B90105C06A
:101C000061E0CE0101960E945A0D81E090E00F90B4
:101C1000DF91CF910895089580E090E008951F929C
:101C20000F920FB60F9211242F933F934F935F9310
:101C30006F937F938F939F93AF93BF93EF93FF9394
:101C40008091B900887F803609F49CC068F588329D
:101C500009F45BC090F4803109F454C038F488234F
:101C600009F4F6C0883009F44DC0F6C0883109F493
:101C70004CC0803209F45DC0EFC0803409F468C004
:101C800048F4803309F455C0883309F0E5C08093E7
:101C90003202D8C0803509F44FC0883509F45DC0E0
:101CA000883409F0D9C0D6C0883909F4C7C0A8F46F
:101CB000883709F467C038F4883609F463C0803780
:101CC00009F460C0C9C0883809F4B8C0803909F483
:101CD0005FC0803809F0C0C05BC0803B09F486C09B
:101CE00038F4803A09F466C0883A09F47FC0B4C079
:101CF000803C09F4A7C0883C09F4A4C0883B09F4DF
:101D00008AC0AAC080912F0210C0909131028091A8
:101D10003002981770F5E091310281E08E0F8093C8
:101D20003102F0E0E25FFD4F80818093BB0085ECE3
:101D300086C0809332028EC0E091310281E08E0F26
:101D4000809331028091BB00F0E0E25FFD4F808321
:101D500090913102809130026EC0E091310281E0B9
:101D60008E0F809331028091BB00F0E0E25FFD4F67
:101D700080838091330281116DC081E080932E02B7
:101D800084EA61C083E08093340210920102CFCFD5
:101D900080910102803208F051C0E091010281E09F
:101DA0008E0F809301028091BB00F0E0EF51FE4F57
:101DB0008083BDCF85EC8093BC001092340280916B
:101DC0000102803230F4E0910102F0E0EF51FE4F69
:101DD00010826091010270E0E091DF01F091E0017A
:101DE00081EE91E009951092010236C084E0809363
:101DF00034021092DE011092DD01E091DB01F091DE
:101E0000DC0109958091DD01811105C081E080939D
:101E1000DD011092BB01E091DE0181E08E0F809325
:101E2000DE01F0E0E554FE4F80818093BB0090918D
:101E3000DE018091DD01981708F479CF85E8809361
:101E4000BC000AC085EC8093BC001092340204C030
:101E5000109232020E94500DFF91EF91BF91AF910D
:101E60009F918F917F916F915F914F913F912F91B2
:101E70000F900FBE0F901F9018953091B90131321D
:101E800008F04BC0809134028111FCCF90919701F2
:101E900022E02093340221E0209333022FEF20939D
:101EA00032021092310230933002E8E9F1E0AEE004
:101EB000B2E020E0321721F041914D932F5FFACF2D
:101EC00010922F0220912F02990F922B90932F02A4
:101ED00090912E02913061F410922E0290912F0277
:101EE0009093BB009091BC0093FDF8CF95EC01C09E
:101EF00095EE9093BC00909134029230E1F3909172
:101F000032029F3F79F080913202803241F080911D
:101F10003202803331F084E005C081E003C082E00A
:101F200001C083E01092BA011092B9011092B80179
:101F3000089581E08093B801609397011092BA01EF
:101F40001092B90108951092360210923502109243
:101F5000BA011092B9011092340281E080933302E9
:101F600010922E0261E082E10E94AA1661E083E1F4
:101F70000E94AA16E9EBF0E080818E7F8083808149
:101F80008D7F808388E48093B80085E48093BC00D3
:101F900082E89DE09093DC018093DB0183E89DE083
:101FA0009093E0018093DF0108958F929F92AF920A
:101FB000BF92CF92DF92EF92FF920F931F93CF9336
:101FC000DF93CDB7DEB7A9970FB6F894DEBF0FBE8B
:101FD000CDBF8091A8029091A9020E94910B40E090
:101FE0006CEC8091A8029091A9020E943E0B409156
:101FF000A20264E48091A8029091A9020E943E0B83
:102000008091A402882309F449C0E091A302E95019
:10201000E33040F4F0E0EE0FFF1FE95FFE4F608118
:10202000718102C06EEE72E08091A502882381F179
:102030008091A20281112CC08FB7F8948090C402C5
:102040009090C502A090C602B090C7028FBF6B01EE
:10205000770FEE08FF088091A8029091A9020E94D4
:10206000EB0A8130D9F02FB7F8948091C402909197
:10207000C502A091C602B091C7022FBF8C199D095D
:10208000AE09BF0988159905AA05BB0520F306C04E
:10209000072E000C880B990B0E943317F09000015B
:1020A000FA94E091A802F091A9021386158614868D
:1020B000DF011B9633961E92EA17FB07E1F7E12C2E
:1020C000BE016E5D7F4F8091A8029091A9020E948F
:1020D0005A18882371F0FE1009C067E0CE0182967D
:1020E0000E94D30A99A5891709F4D3C0E394FE147A
:1020F00038F760E070E08EEF92EC6093930170939C
:102100009401809395019093960181E080937702EA
:10211000809378021092700210926F0286E390E032
:102120009093720280937102809100011BA21AA207
:102130001DA21CA21FA21EA24AE0FE0131967F0131
:10214000BF0190E00E945A21F70101900020E9F7B9
:102150003197AF014E195F09B701CE0182960E94F7
:10216000B20A1A8219821C821B821E821D8245E0DD
:1021700050E068E771E0C7010E94B20A4EA15FA17A
:102180006AA17BA1C7010E94590A811103C0C7013E
:102190000E94870A6EE771E0C7010E94990AFC015C
:1021A000448155816081718183E692E00E940F062F
:1021B00089819A810E94EA258AA19BA10E94EA2531
:1021C0006091930170919401809195019091960195
:1021D0001BA21AA21DA21CA21FA21EA2870122E0FE
:1021E00044E00E943A21009771F0FC010190002028
:1021F000E9F73197AF01481B590BBC01CE0182961C
:102200000E94B20A04C0CE0182960E94870A1A82F6
:1022100019821C821B821E821D826AA17BA161150C
:10222000710529F04EA15FA1C7010E94B20A60E8C2
:1022300071E0C7010E94990AFC01448155816081C7
:10224000718183E692E00E940F0689819A810E9443
:10225000EA258AA19BA10E94EA2567EF83E692E026
:102260000E94810982E891E00E94BB17A9960FB6EF
:10227000F894DEBF0FBECDBFDF91CF911F910F91BC
:10228000FF90EF90DF90CF90BF90AF909F908F9096
:1022900008958091A8029091A9020E94910B882331
:1022A00009F451C0BE016F5F7F4FCE0182960E943C
:1022B0000E18882309F447C068E0CE0101960E94F9
:1022C000D30A998589133FC02A8130E0C901982F2C
:1022D0008827990F990F990F698128E0629FB001B3
:1022E00011249C01262B372B8AA18031C9F46885E3
:1022F00070E08F81AB01481B5109CA019695982F58
:102300008827979587950E94162560517109207F2F
:1023100053E0220F331F5A95E1F7620F731F01C07C
:10232000B901613854EE75070CF4E3CE072E000CAA
:10233000880B990B0E94B82320E030E040E05CE37A
:102340000E94F323DACE60E874EEEBCFEF92FF92B7
:102350000F931F93CF93DF9380918002909181021E
:10236000892BD1F020919A0230919B0240919C02DE
:1023700050919D0260E074E284EF90E00E942A2573
:10238000DA01C9014097A109B109B695A7959795BA
:1023900087958093B80016C080917E0290917F024D
:1023A000892B31F080919802909199020E942E0C15
:1023B000E0919202F0919302908180919702809532
:1023C0008923808365E08EE89BE00E948F196091ED
:1023D0006702615083E692E00E94D00B209169026F
:1023E00030916A02C901079697FD079633E09595EB
:1023F00087953A95E1F72091670230916802829FB4
:102400008001839F100D929F100D1124C0918202B4
:10241000D091830280918002909181020C0F1D1F48
:10242000009709F445C0609184020E94990F809141
:10243000800290918102DC01ED91FC910190F0818C
:10244000E02D60E409957E01D1E0809180029091B9
:1024500081020E151F0549F1D032B8F00E943D0FE0
:102460006091840280918002909181020E94990F74
:102470008091800290918102DC01ED91FC910190AC
:10248000F081E02D60E40995D1E080918002909187
:102490008102F70161917F01DC01ED91FC910190D6
:1024A000F081E02D0995DF5FD0CF0E943D0F41C044
:1024B000E0919002F0919102908180919602892B97
:1024C0008083C017D107A9F1899120917E023091B4
:1024D0007F02232B19F00E94C90BF3CF28E030E0D4
:1024E00040E8E0918C02F0918D0290919402582F77
:1024F000542319F05081952B03C05081909595235A
:102500009083E0918E02F0918F025081909195021C
:10251000952B9083E0918E02F0918F0250819091E3
:102520009502909595239083469521503109C9F6DF
:10253000C8CF8091800290918102892BD1F02091A7
:102540009E0230919F024091A0025091A10260E052
:1025500074E284EF90E00E942A25DA01C9014097D5
:10256000A109B109B695A795979587958093B8006D
:1025700017C0E0919202F0919302908180919702AE
:10258000892B808380917E0290917F02892B41F07C
:10259000DF91CF911F910F91FF90EF900C94C80B9A
:1025A000DF91CF911F910F91FF90EF9008953F928F
:1025B0004F925F926F927F928F929F92AF92BF9253
:1025C000CF92DF92EF92FF920F931F93CF93DF93FF
:1025D00000D000D000D0CDB7DEB72C013B014A01BE
:1025E0005901C901079697FD07969C0193E035951F
:1025F00027959A95E1F73C832B83C12CD12CE12CB4
:10260000F12C312CC3018E0D9F1D9A838983E01616
:10261000F106C4F51E821D822D813E812A153B05DF
:102620004CF5C90187709927892B11F0330C0EC026
:10263000ED81FE81F7FD379683E0F595E7958A9564
:10264000E1F7EC0DFD1DE80DF91D349037FE0CC0CF
:1026500021E030E049815A816D817E81640D751DD4
:1026600083E692E00E94970C8D819E8101969E8365
:102670008D83D2CF9FEFE91AF90A2B813C81C20EDC
:10268000D31EC0CF26960FB6F894DEBF0FBECDBFC7
:10269000DF91CF911F910F91FF90EF90DF90CF903E
:1026A000BF90AF909F908F907F906F905F904F9072
:1026B0003F9008952F923F924F925F926F927F9238
:1026C0008F929F92AF92BF92CF92DF92EF92FF9242
:1026D0000F931F93CF93DF93CDB7DEB76B970FB6F2
:1026E000F894DEBF0FBECDBF9B8F8A8F1B014A01BE
:1026F000D22E198708873701A982DC0159962D91BE
:102700003C915A972115310509F0FFC018968D911B
:102710009C911997681779070CF0E7C11A968D916B
:102720009C911B97481759070CF0DFC1EC2DF0E086
:10273000FB83EA839B0146E0C49E200D311D1124DA
:102740003D872C87121613060CF0CFC16A2D70E05E
:102750007B876A8783E0660F771F8A95E1F77F871B
:102760006E87CB01880D991D181619060CF0BDC196
:1027700058968C91811104C08FEA8D1508F4D3947A
:10278000AA8DBB8DED91FC9111970284F385E02D0C
:10279000CD010995B5E0DB9EC0011124EC2DF0E0E0
:1027A000F98BE88B91012B5F3F4F3B8B2A8B3D824E
:1027B0002C822101AC01421953095D8B4C8B79812C
:1027C000672F70E07F8B6E8BC4010896998F888F7E
:1027D000EC89FD89E40DF51DE257F94FD4905401C1
:1027E0009F828E82D0FE16C0AA8DBB8DED91FC918A
:1027F000B1E0CB1209C02981213031F40484F58580
:10280000E02D2885398519C00684F785E02DE884F8
:10281000F9841DC0488559854615570519F1AA8DBB
:10282000BB8DED91FC91B1E0CB120DC0298121301F
:1028300051F40484F585E02D9301A501B2018A8D40
:102840009B8D09950FC00684F785E02D73010A85DD
:102850001B852A813B814E815F816C817D818A8DC0
:102860009B8D0995D6943FEFA31AB30A4E815F81E1
:102870006E897F89460F571F5F834E83888D998DA0
:10288000A816B90609F0AECF9FEF491A590AAC81D4
:10289000BD81E889F989AE0FBF1FBD83AC832A894A
:1028A0003B894216530609F093CF48855985461552
:1028B000570509F4F8C0AA8DBB8DED91FC91B1E0EC
:1028C000CB1211C02981213071F4B1016B5F7F4FB0
:1028D0000088F189E02D830128E030E0A4018A8D91
:1028E0009B8D0995E0C06C857D854A815B81641B69
:1028F000750B0684F785E02D73010E851F859A01FF
:10290000A4018A8D9B8D0995CEC0F9013496E4917E
:10291000DE1AF901329685919491B7E0DB9E800D25
:10292000911D1124F901259134913B8B2A8BFC01D7
:10293000259134915901FC0132965490319634918D
:102940003C87329674903196149141E04C1518F002
:102950005981523068F0672D072C000C770B7D836E
:102960006C83812F012E000C990B9B838A8304C0FA
:102970001B821A821D821C82AA8DBB8DED91FC9157
:1029800011970284F385E02DCD010995412CD12CBE
:10299000612CF981EF2FF0E0FF83EE832C2D30E0E6
:1029A0003B872A87A401410F511D17FD5A955F8B64
:1029B0004E8BB101670D711D77FC7A95798F688F09
:1029C0007C85671608F06FC0262D30E04A815B8158
:1029D000420F531FAE81BF81A49FC001A59F900DE0
:1029E000B49F900D1124F401E80FF91FF98BE88BC7
:1029F000842D712C4E895F89420F531F5D8B4C8B48
:102A0000751408F04DC051E0580F5E87877041F48F
:102A1000C5010196EA89FB89EA0DFB1DD4905C0192
:102A2000D7FE3AC061E0C61216C07981713099F4C0
:102A3000AA8DBB8DED91FC9111970484F585E02D55
:102A4000288539854C895D89688D798D670D711D63
:102A5000CD01099521C08C819D81870D911DEA854D
:102A6000FB858E9FB0018F9F700D9E9F700D11246E
:102A7000620D731DAA8DBB8DED91FC91119706849B
:102A8000F785E02DE884F9840E811F812A853B8536
:102A900048895989CD010995DD0C73948E85B0CF95
:102AA000450C63948DCFAA8DBB8DED91FC91119750
:102AB0000688F789E02DCD016B960FB6F894DEBF3E
:102AC0000FBECDBFDF91CF911F910F91FF90EF907F
:102AD000DF90CF90BF90AF909F908F907F906F903E
:102AE0005F904F903F902F9009946B960FB6F8949B
:102AF000DEBF0FBECDBFDF91CF911F910F91FF9031
:102B0000EF90DF90CF90BF90AF909F908F907F908D
:102B10006F905F904F903F902F9008950F931F9369
:102B2000CF93DF9377FF04C0260F371F60E070E07C
:102B3000DC011496CD91DC911597FB01E20FF31F98
:102B4000CE17DF071CF49E01261B370B1216130647
:102B50000CF046C0FA0157FD3796DF01E3E0B5956A
:102B6000A795EA95E1F7AC9FF001AD9FF00DBC9FF2
:102B7000F00D11246E0F7F1FDC015F96ED91FC912B
:102B80009097E60FF71F4770552781E090E001C04E
:102B9000880F4A95EAF7482F0130110539F078F08F
:102BA00002301105E9F42E0F3F1F13C02E0F3F1FF7
:102BB000E217F307A9F08081842B8193F9CF8095E8
:102BC0002E0F3F1FE217F30759F09081982391933E
:102BD000F9CFE217F30721F0808184278193F9CFA1
:102BE000DF91CF911F910F910895EF92FF920F9374
:102BF0001F93CF93DF93EC0177FDA5C0EC80FD80A0
:102C00006E157F050CF09FC057FF04C0240F351FC1
:102C100040E050E08E819F81FA01E20FF31F8E1792
:102C20009F071CF49C01241B350B121613060CF095
:102C30008AC0922F842F8695869586958E9DD00189
:102C40008F9DB00D11246A0F7B1FAF8DB8A1A60F09
:102C5000B71F4770B1F188E0841B482F682F70E0E0
:102C6000FB01EA57F94FE491281798F4621B7109A8
:102C70002FEF30E002C0359527956A95E2F7E22301
:102C80000130110549F078F00230110509F05BC000
:102C90000EC00130110519F48C91E82B0AC00130E7
:102CA000110508F049C0E0958C91E82302C08C9191
:102CB000E827EC93941708F446C02C813D81A20FBD
:102CC000B31FE92FE41BE830F8F00230110561F47E
:102CD0008E2F9C9190959C932C813D81A20FB31FC8
:102CE00088508830B0F70FC081E00115110509F454
:102CF00080E081959E2F8C932C813D81A20FB31F84
:102D000098509830C0F7E770EE23E9F0F0E0E25811
:102D1000F94FE4910130110539F048F00230110506
:102D200091F48C91E82706C08C91E82B03C0E095C4
:102D30008C91E823EC9307C00230110509F4B7CF5A
:102D4000AE0DBF1DBECFDF91CF911F910F91FF90B0
:102D5000EF90089590E0FC01E659F94F2491FC01B1
:102D6000EF54F44F3491FC01E356F44FE491EE2319
:102D700009F43CC0222339F1233091F038F421309A
:102D8000A9F0223001F584B58F7D12C0273091F073
:102D90002830A1F02430B9F4809180008F7D03C0E9
:102DA000809180008F77809380000DC084B58F77ED
:102DB00084BD09C08091B0008F7703C08091B000BE
:102DC0008F7D8093B000F0E0EE0FFF1FE05AF94FC7
:102DD000A591B4919FB7F894611104C08C9130957E
:102DE000382302C0EC913E2B3C939FBF0895CF93B4
:102DF000DF9390E0FC01EF54F44F2491FC01E35683
:102E0000F44F8491882361F190E0880F991FFC01B1
:102E1000EA5AF94FC591D491FC01E05AF94FA591B6
:102E2000B491611109C09FB7F894888120958223DD
:102E30008883EC912E230BC0623061F49FB7F89425
:102E40008881322F309583238883EC912E2B2C930D
:102E50009FBF06C08FB7F894E8812E2B28838FBFC1
:102E6000DF91CF9108958F929F92AF92BF92CF92B0
:102E7000DF92EF92FF926B017C010E943E1A4B01A0
:102E80005C01C114D104E104F104F1F00E943E1A86
:102E9000DC01CB0188199909AA09BB09883E934036
:102EA000A105B10570F321E0C21AD108E108F108CB
:102EB00088EE880E83E0981EA11CB11CC114D104B9
:102EC000E104F10419F7DDCFFF90EF90DF90CF9090
:102ED000BF90AF909F908F90089590913402911180
:102EE000FCCF982F813208F090E281E08093340289
:102EF000809333022FEF2093320210923102290F78
:102F00002093300280932F0280912F02806D809356
:102F10002F0280912E02813061F410922E02809156
:102F20002F028093BB008091BC0083FDF8CF85EC1D
:102F300001C085EE8093BC00809134028130E1F3C2
:102F400080913102891710F490913102EEE0F2E0A5
:102F5000A7E3B2E080E0891721F021912D938F5FE4
:102F6000FACF10923602809335020895682F87E5D4
:102F700092E00C94DC0D009769F0FC0101900020B8
:102F8000E9F73197AF01481B590BBC0183E692E08A
:102F90000C940F0680E090E008958F929F92AF927C
:102FA000BF920F931F93CF93DF93CDB7DEB7A19757
:102FB0000FB6F894DEBF0FBECDBF19A2423008F4A1
:102FC0004AE08E010F5D1F4F842E912CA12CB12C55
:102FD000A50194010E942A25E62FB901CA010150DA
:102FE0001109EA3014F4E05D01C0E95CD801EC930A
:102FF000232B242B252B61F7C8010E94BB17A19618
:103000000FB6F894DEBF0FBECDBFDF91CF911F91F9
:103010000F91BF90AF909F908F900895AF92BF9205
:10302000CF92DF92EF92FF920F931F93CF93DF9394
:103030008B01BC018091A8029091A9020E94720BA1
:1030400040E06EEB8091A8029091A9020E943E0B95
:10305000E801680189E0C80ED11CA090A802B090D8
:10306000A90288E0E82EF12C10E001E0C5010E94E1
:10307000EB0A8111102B000F81E0E81AF108B1F77B
:103080001993CC16DD0649F78091A8029091A90208
:103090000E94910B91E0813009F090E0892FDF913F
:1030A000CF911F910F91FF90EF90DF90CF90BF9045
:1030B000AF900895BF92CF92DF92EF92FF920F935D
:1030C0001F93CF93DF93EC016B018D85811105C0B8
:1030D000CE010E94910B811105C01B861D861C86A6
:1030E00080E060C040E060EFCE010E943E0B01E056
:1030F000E12CB12C11E0CE010E94EB0AF82ECE019A
:103100000E94EB0A91E0F91203C08130B1F434C09F
:103110002E2D30E0F8121BC08B85181738F4FE01F5
:10312000E20FF31F8381802341F402C0811729F04D
:10313000F12C193058F41C8709C0FE01EE0DF11D69
:103140008381802B8383FF24F39409C0B12EFE0179
:10315000E20FF31F9381802F8095892383836F2D46
:10316000CE010E940F0B1F5F000F11F4E39401E0EA
:1031700087E08E1508F0BFCF113408F4AECFBB86C0
:10318000B11002C081E08D878B81882309F4A5CF1F
:10319000DE011396F6012B968D918193CA17DB07FA
:1031A000D9F781E0DF91CF911F910F91FF90EF90C0
:1031B000DF90CF90BF9008950F931F93CF93DF932D
:1031C000CDB7DEB729970FB6F894DEBF0FBECDBFDF
:1031D0008C018091A8029091A9020E94910B8823F2
:1031E00009F1BE016F5F7F4FC8010E940E1888234E
:1031F000C9F068E0CE0101960E94D30A998589132F
:1032000011C08D818F3361F020F48F3159F489E042
:103210000CC08F3519F08F3739F004C08BE005C032
:103220008AE003C080E001C08CE029960FB6F894D4
:10323000DEBF0FBECDBFDF91CF911F910F910895DB
:10324000CF93DF93D82FC62F68E687E592E00E94E0
:10325000990F6D2F87E592E00E94DC0D6C2F87E5BA
:1032600092E00E94DC0D87E592E0DF91CF910C9413
:103270003D0FCF93C82F68E687E592E00E94990F33
:103280006C2F87E592E00E94DC0D87E592E00E94BA
:103290003D0F81E090E00E946D1790913502809182
:1032A00036029817F1F387E592E00E94930DC82F3C
:1032B00087E592E00E943D0F8C2FCF9108958FE01B
:1032C0000E943919682F6D7F8FE00C9420198FE0D0
:1032D0000E943919682F6E7F8FE00C94201920917D
:1032E000690230916A02C901079697FD079623E0AB
:1032F000959587952A95E1F72091670230916802AC
:10330000829FA001839F500D929F500D112460E079
:1033100070E080918202909183020C944727DF92A3
:10332000EF92FF920F931F93CF93DF93D82ED92F55
:10333000C62F8091800290918102009709F44EC0BF
:10334000609184020E94990F809180029091810285
:10335000DC01ED91FC910190F081E02D60E0099598
:10336000ED2CFD2E11E08091800290918102CC2302
:1033700061F11032B8F00E943D0F6091840280919B
:103380008002909181020E94990F80918002909119
:103390008102DC01ED91FC910190F081E02D60E073
:1033A000099511E08091800290918102F70164916A
:1033B000DC01ED91FC910190F081E02D09951F5FFA
:1033C000C150BFEFEB1AFB0ACECFDF91CF911F9117
:1033D0000F91FF90EF90DF900C943D0FE0919002E1
:1033E000F09191029081809196028095892380834B
:1033F0000D2D1D2FCC2309F439C0F80184912091A3
:103400007E0230917F02232B31F00E94C90BC15004
:103410000F5F1F4FEFCF28E030E040E8E0918C02D3
:10342000F0918D0290919402582F542319F05081FD
:10343000952B03C05081909595239083E0918E0247
:10344000F0918F02508190919502952B9083E0919D
:103450008E02F0918F025081909195029095952364
:103460009083469521503109C9F6D1CFDF91CF9194
:103470001F910F91FF90EF90DF9008953FB7F89460
:103480008091C9029091CA02A091CB02B091CC0266
:1034900026B5A89B05C02F3F19F00196A11DB11DAF
:1034A0003FBFBA2FA92F982F8827820F911DA11DEA
:1034B000B11DBC01CD0142E0660F771F881F991F27
:1034C0004A95D1F708951F920F920FB60F921124CB
:1034D0002F933F938F939F93AF93BF938091C40299
:1034E0009091C502A091C602B091C7023091C80266
:1034F00023E0230F2D3720F40196A11DB11D05C037
:1035000026E8230F0296A11DB11D2093C8028093C7
:10351000C4029093C502A093C602B093C7028091E3
:10352000C9029091CA02A091CB02B091CC0201963F
:10353000A11DB11D8093C9029093CA02A093CB0232
:10354000B093CC02BF91AF919F918F913F912F91FA
:103550000F900FBE0F901F901895CF93DF93CDB7AC
:10356000DEB76A970FB6F894DEBF0FBECDBF789472
:1035700084B5826084BD84B5816084BD85B5826078
:1035800085BD85B5816085BD80916E008160809329
:103590006E00109281008091810082608093810092
:1035A00080918100816080938100809180008160A2
:1035B000809380008091B10084608093B1008091FD
:1035C000B00081608093B00080917A008460809325
:1035D0007A0080917A00826080937A0080917A00EC
:1035E000816080937A0080917A00806880937A006D
:1035F0001092C1008091820290918302892B11F573
:103600002091690230916A02C901079697FD0796D9
:10361000B3E095958795BA95E1F7209167023091CF
:103620006802AC01429FC001439F900D529F900DD4
:1036300011240E9452259093830280938202892B49
:1036400009F4E7C00E946F192091690230916A0263
:103650008091670290916802213231050CF40AC40E
:10366000B9016054710977FF02C06F5F7F4F759594
:1036700067958255910997FD019600E410E022E5D7
:1036800030E04EE553E0959587950E94D71282E091
:10369000809385028091800290918102009709F4C5
:1036A000FFC32091690230916A022032310509F48A
:1036B000F5C32DE3209384020E94A30F80918B0217
:1036C00087FD1EC061E00E94F71661E080918B02C9
:1036D0000E94AA1661E070E080E090E00E9433173B
:1036E00060E080918B020E94AA166AE070E080E0A0
:1036F00090E00E94331761E080918B020E94AA162D
:103700008091800290918102892B09F488C42091D4
:103710009A0230919B0240919C0250919D0260E080
:1037200074E284EF90E00E942A25DA01C9014097F3
:10373000A109B109B695A795979587958093B8008B
:1037400064E08AE791E00E948F19609169026150FC
:1037500083E692E00E94D00B64E086E791E00E944D
:103760008F1980918502813009F470C464E183E689
:1037700092E00E94D00B64E082E791E00E948F19F2
:1037800080916702909168028038910509F071C4B8
:103790008091690290916A028032910509F058C4C3
:1037A00064E08EE691E00E948F1969ED83E692E075
:1037B0000E94D00B80918502813009F476C461EFBC
:1037C00083E692E00E94D00B66E082E691E00E94E0
:1037D0008F198091800290918102892B09F467C42E
:1037E00020919E0230919F024091A0025091A1022F
:1037F00060E074E284EF90E00E942A25DA01C901BA
:103800004097A109B109B695A7959795879580939B
:10381000B80011E0109377021093780210927402AE
:1038200010927302EE24E394F12CF0927602E0926F
:10383000750285E090E09093700280936F02A4E19E
:10384000CA2ED12CD0927202C09271028BE491E008
:103850000E94BB170E94A61168EE73E080E090E022
:103860000E9433170E946F1980E290E090937002DB
:1038700080936F02D0927202C092710289E691E049
:103880000E94BB170E94A61168EE73E080E090E0F2
:103890000E9433170E946F19F0927602E09275022F
:1038A000F0927402E092730287E592E00E94A30F07
:1038B0008EE00E943919682F6B738EE00E942019E8
:1038C00080ED97E09093030280930202109304022C
:1038D000109305021092060210920702109208023D
:1038E00086E08093090280E795E3ADE6B8E3809334
:1038F0000A0290930B02A0930C02B0930D028EE08B
:103900000E943919682F6E7F8EE00E9420198EE088
:103910000E943919682F6D7F8EE00E9420190E9445
:1039200067190E945F1968E687E592E00E94990F87
:1039300080E090E00E94B61761E087E592E00E9487
:10394000DC0D60E187E592E00E94DC0D60E187E537
:1039500092E00E94DC0DE7E2F6E0849190E08A526A
:10396000964F67E070E00E940225882311F0682FCF
:1039700001C067E087E592E00E94DC0D60E187E529
:1039800092E00E94DC0D60E187E592E00E94DC0D90
:1039900069E187E592E00E94DC0D80E090E00E9402
:1039A000B61787E592E00E943D0F68E687E592E052
:1039B0000E94990F87E090E00E94B61765E087E5C6
:1039C00092E00E94DC0D60E887E592E00E94DC0D49
:1039D00060E887E592E00E94DC0D60E887E592E010
:1039E0000E94DC0D87E592E00E943D0F8EE00E9470
:1039F0003919682F61608EE00E9420190E946719B2
:103A000068E687E592E00E94990F8BE090E00E94C3
:103A1000B61760E087E592E00E94DC0D60E087E584
:103A200092E00E94DC0D60E087E592E00E94DC0DF0
:103A300087E592E00E943D0F8EE00E943919682FC1
:103A400062608EE00E9420190E945F19E091A80236
:103A5000F091A902138615861486DF011B96339612
:103A60001E92EA17FB07E1F71092A6021092A70236
:103A70008E010F5F1F4FEE24E394B8018091A802DE
:103A80009091A9020E945A18882309F460C067E047
:103A9000C8010E94D30A98858913EFCF8091A202B2
:103AA000811125C08091A8029091A9020E94910BDA
:103AB000B8018091A8029091A9020E94720B40E087
:103AC00064EB8091A8029091A9020E943E0B809124
:103AD000A8029091A9020E94EB0AF82E8091A802F8
:103AE0009091A9020E94910BFF2009F4F3C2F0907B
:103AF000A3028981803109F4F8C2C8010E94DC1850
:103B00008F1518F48091A30208C08981803111F4C7
:103B10008CE003C0C8010E94DC188093A30280914E
:103B2000A6028F5F8093A6028981883209F4D5C2EC
:103B300038F4803109F4D1C2823209F09ECFCDC26F
:103B40008B3309F4CAC2823409F097CFC6C261E050
:103B500081E00E94F71661E082E00E94F7165DE6C0
:103B6000652E7724739460E0C62E60E0D62E74E054
:103B7000272EE5E04E2E552453940E946F198FE0B6
:103B80000E94391980FF06C02092000140929201E4
:103B90000E9467198FE00E94391981FF06C0409288
:103BA0000001409291010E945F19809100018330D1
:103BB000B9F058F4813071F0823009F069C00E9488
:103BC000D50F53E05093000163C0843071F085300D
:103BD000A9F15EC00E94D50F82E08093000158C019
:103BE0000E94D50F5092000153C0F0909101FF2028
:103BF00061F0F0FE02C061E001C060E082E00E947E
:103C0000AA16FA94F092910104C060E082E00E944A
:103C1000AA16F0909201FF2061F0F0FE02C061E070
:103C200001C060E081E00E94AA16FA94F09292012D
:103C30002FC05092000160E081E028C0F090920116
:103C4000FF2061F0F0FE02C061E001C060E081E0B1
:103C50000E94AA16FA94F092920104C060E081E0FA
:103C60000E94AA16F0909101FF2061F0F0FE02C0C0
:103C700061E001C060E082E00E94AA16FA94F0922E
:103C8000910106C05092000160E082E00E94AA16F5
:103C900068E687E592E00E94990F80E090E00E943C
:103CA000B61787E592E00E943D0F87E090E00E9402
:103CB0006D1790913502809136029817F1F37E01CD
:103CC0008FE0E80EF11C87E592E00E94930D982F9B
:103CD00092959F708F70EAE09E9F800D112490E076
:103CE000F701929382937F010E171F0761F787E513
:103CF00092E00E943D0F69817A81AB014053584F99
:103D000050930302409302023B81309304028D8161
:103D10009E81809305022F8120930902398430927D
:103D20000602EB84E0920702FD84F09208029927D4
:103D3000EAE2F6E021E0231730F4A4918A0F911D06
:103D40002F5F3196F8CF323031F49B012370332747
:103D5000232B09F4C8C14D5C57409A01369527952D
:103D600036952795669DA001679D500D769D500D57
:103D70001124240F351F21503109280F391FA8E1C4
:103D8000B0E00E94F324832C912CA12CB12C9B0138
:103D9000AC01280D391D4A1D5B1DACE3B0E00E944B
:103DA000B1249B01AC012E0D311D411D511D0E94FE
:103DB000B124DC01CB018F0D911DA11DB11D8059D6
:103DC0009A4CA249B74C80930A0290930B02A0939D
:103DD0000C02B0930D028CE0E2E0F2E0DE011F96EF
:103DE00001900D928A95E1F78CE0FE013F96A5E8DF
:103DF000B1E001900D928A95E1F782E0809377021D
:103E00008093780248E150E05093700240936F0233
:103E100084E190E090937202809371024AE0C501C0
:103E2000B4010E94CD1786E791E00E94BB17609114
:103E30008A0170E080E090E04AE00E94CD1786E7BA
:103E400091E00E94BB1760918B0170E080E090E0F0
:103E50004AE00E94CD170E94A61166EB73E080E055
:103E600090E00E943317C114D10409F486CE0E9459
:103E7000000081CEB9016052710977FF02C06F5F07
:103E80007F4F759567958357910997FD019600E2DD
:103E900010E023E730E04EE751E0F5CB2CE30ACC0D
:103EA00061E0809189020E94F71661E080918A02A8
:103EB0000E94F71680918902082E000C990BFC01D4
:103EC000E356F44FE491F0E0EE0FFF1FE05AF94F94
:103ED000259134913093910220939002FC01EF548C
:103EE000F44FE491E093960280918A02082E000C30
:103EF000990BFC01E356F44FE491F0E0EE0FFF1F45
:103F0000E05AF94FA591B491B0939302A093920215
:103F1000FC01EF54F44FE491E09397028C91E82B6D
:103F2000EC9380917E0290917F02892B09F434C03A
:103F30001FB7F89480918401811127C0E7EAFBE064
:103F40008491EBEBFBE09491E82FF0E0EE0FFF1F84
:103F5000EA5AF94FA591B491EC91E92321F461E07B
:103F60008AE00E94AA1661E08AE00E94F7168CB5EA
:103F700080618CBD8CB580648CBD61E08DE00E9459
:103F8000F71661E08BE00E94F716809184018F5F45
:103F9000809384011FBF92CB61E0809187020E94D1
:103FA000F71661E0809188020E94F71680918702DF
:103FB000082E000C990BFC01E356F44FE491F0E05D
:103FC000EE0FFF1FE05AF94F2591349130938D0287
:103FD00020938C02FC01EF54F44FE491E09394029F
:103FE00080918802082E000C990BFC01E356F44FD7
:103FF000E491F0E0EE0FFF1FE05AF94FA591B49164
:10400000B0938F02A0938E02FC01EF54F44FE49121
:10401000E09395028C91E095E823EC934FCB80914F
:104020007E0290917F02892B31F0809198029091CD
:1040300099020E942E0CE0919202F09193029081DD
:10404000809197028095892380837ACB60E18FCB22
:104050008034910509F0A9CB63E08BE691E00E94E2
:104060008F1980918502813011F06FEC19C06FE9D2
:1040700017C08036910509F098CB80916902909124
:104080006A02409709F091CB63E088E691E00E94D4
:104090008F1980918502813011F06FEA01C060E1D3
:1040A00083E692E00E94D00B80CB62E289CBE09164
:1040B0009202F0919302908180919702892B8083E4
:1040C00080917E0290917F02892B09F4A2CB0E94FD
:1040D000C80B9FCBE092A2020ACD8091A7028F5F0E
:1040E0008093A702CACC019636CE9CE09F1508F4B7
:1040F00009CD0ECD83E291E0909364028093630238
:104100008091820290918302009711F00C94EA252D
:10411000089510925A021092590288EE93E0A0E09E
:10412000B0E080935B0290935C02A0935D02B09339
:104130005E0281E191E0909358028093570260E023
:1041400088E00E94F716E9EBFBE0E491E093B60209
:10415000E5EAFBE0E491F0E0EE0FFF1FED56F44FCF
:10416000859194919093B8028093B7021092C10206
:104170001092C3021092C202E1ECF2E089EB92E0ED
:1041800012928E179F07E1F786EB92E09093A902B7
:104190008093A8021092A6021092A7021092A20287
:1041A00099E09093A30281E08093A4028093A502FA
:1041B0001092B5021092B40210926602109265023B
:1041C00040E850E0509368024093670220E430E0FA
:1041D00030936A022093690250936C0240936B0201
:1041E00030936E0220936D02109279021092700249
:1041F00010926F02109272021092710280937802F4
:10420000809377022FEF3FEF309376022093750271
:10421000309374022093730280937A0210927B028F
:1042200010927D0210927C0223E231E0309364020E
:104230002093630210927F0210927E0210928102FC
:104240001092800210928302109282029093870251
:104250008AE0809388028BE0809389028CE08093CF
:104260008A028DE080938B0280E580939802109201
:1042700099020895EF920F931F93CF93DF93E80174
:1042800047FD02C034E001C034E1042E000C550BA0
:1042900057FF03C0519541955109E32E022F242F5A
:1042A000AE010E947421CE01DF91CF911F910F9139
:1042B000EF900895BB27FB015527AA27880F991F68
:1042C000AA1FA41710F0A41B83955051B9F7A05D45
:1042D000AA3308F0A95DA193009779F7B111B193C2
:1042E0001192CB010C94A623A9E0B0E0EAE7F1E239
:1042F0000C94C2246A01122FB02E2BE3201720F059
:10430000FF24F394F00E02C02CE3F22E0F2D27E0D1
:10431000AE014F5F5F4F0E94CE22BC014981842FC6
:104320008970813031F0E1FC06C0E0FE06C090E209
:1043300005C09DE203C09BE201C090E05E2D50717C
:1043400043FF3CC0911102C083E001C084E08117AB
:1043500018F4212F281B01C020E051110BC0F601D9
:10436000822F30E2882319F031938150FBCFC20EA7
:10437000D11C20E0992329F0D6019C93F6013196B7
:104380006F01C6010396E2FE0AC03EE4D6013C93EB
:1043900041E411964C93119712963C9306C03EE669
:1043A000F601308341E641833283FC01322F40E243
:1043B000332309F442C041933150FACF42FF44C045
:1043C000911102C083E001C084E0811718F4212F0D
:1043D000281B01C020E051110BC0F601822F30E2F2
:1043E000882319F031938150FBCFC20ED11C20E0FD
:1043F000992329F0D6019C93F60131966F01C601ED
:104400000396E2FE0BC039E4D6013C933EE41196DC
:104410003C93119736E412963C9307C039E6F601B7
:1044200030833EE6318336E63283FC01322F40E2B0
:10443000332319F041933150FBCFFC01E20FF11D02
:1044400010828EEF9FEFA6C021E030E0911102C0F4
:1044500020E030E0161617061CF4FB01319602C06E
:10446000E1E0F0E02E0F3F1FBB2021F0EB2DF0E04C
:10447000319602C0E0E0F0E02E0F3F1FE12FF0E0A8
:104480002E173F071CF4121B212F01C020E08E2D98
:10449000887159F4F601822F30E2882319F03193A4
:1044A0008150FBCFC20ED11C20E0992329F0D60108
:1044B0009C93F60131966F0151110BC0F601822FCA
:1044C00090E3882319F091938150FBCFC20ED11C49
:1044D00020E00F2D060F9A81342F307144FF03C066
:1044E000913309F40150101624F4093018F008E053
:1044F00001C001E0AB0177FF02C040E050E0FB01EA
:10450000E41BF50BA1E0B0E0AC0FBD1FEA0FFB1FF1
:104510008EE2A82E4B01801A91080B2D10E0119508
:10452000019511094F3FBFEF5B0721F4D601AC9213
:1045300011966D01641775072CF08416950614F416
:10454000818101C080E3415051093196D601119615
:104550007D014017510724F0D6018C936701E2CF0B
:104560006417750739F4963320F4953319F4311133
:1045700001C081E3F6018083F701822F90E2882356
:1045800019F091938150FBCFF701E20FF11D1082DA
:1045900080E090E02996ECE00C94DE24283008F0CE
:1045A00027E03327DA01990F311D87FD91600096CE
:1045B0006105710539F432602E5F3D9330E32A9531
:1045C000E1F708959F3F30F080387105610509F0EB
:1045D0003C5F3C5F3D93913008F08068911DDF9314
:1045E000CF931F930F93FF92EF92192F987F969579
:1045F000E92F96959695E90FFF27EE53FF4F9927E0
:104600003327EE24FF24A701E701059008940794BF
:1046100028F4360FE71EF81E491F511D660F771F3D
:10462000881F991F0694A1F70590079428F4E70EB8
:10463000F81E491F561FC11D770F881F991F661F3F
:104640000694A1F70590079428F4F80E491F561F09
:10465000C71FD11D880F991F661F771F0694A1F7EA
:104660000590079420F4490F561FC71FD81F990FB4
:10467000661F771F881F0694A9F7849110951770FD
:1046800041F0D695C79557954795F794E7941A95B5
:10469000C1F7E8E6F0E068941590159135916591C1
:1046A000959105907FE27395E118F10A430B560B43
:1046B000C90BD009C0F7E10CF11E431F561FC91FDB
:1046C000D01D7EF4703311F48A95E6CFE894015042
:1046D00030F0080F0AF40027021708F4202F239562
:1046E000022F7A3328F079E37D932A95E9F710C0F9
:1046F0007D932A9589F60694979567953795179532
:104700001794E118F10A430B560BC90BD00998F026
:1047100023957E9173957A3308F070E37C93201390
:10472000B8F77E9170617D9330F0839571E37D934E
:1047300070E32A95E1F71124EF90FF900F911F91FC
:10474000CF91DF91992787FD90950895DC01FC01B9
:10475000672F71917723E1F7329704C07C916D93B5
:1047600070836291AE17BF07C8F30895E89409C03B
:1047700097FB3EF490958095709561957F4F8F4F94
:104780009F4F9923A9F0F92F96E9BB279395F695AA
:10479000879577956795B795F111F8CFFAF4BB0F28
:1047A00011F460FF1BC06F5F7F4F8F4F9F4F16C08C
:1047B000882311F096E911C0772321F09EE8872F16
:1047C000762F05C0662371F096E8862F70E060E0D2
:1047D0002AF09A95660F771F881FDAF7880F96954B
:1047E000879597F908950E9406240C9477240E94D7
:1047F000692438F00E94702420F0952311F00C9465
:1048000060240C94662411240C94AB240E94882408
:1048100070F3959FC1F3950F50E0551F629FF00113
:10482000729FBB27F00DB11D639FAA27F00DB11D2C
:10483000AA1F649F6627B00DA11D661F829F2227B5
:10484000B00DA11D621F739FB00DA11D621F839F3C
:10485000A00D611D221F749F3327A00D611D231F12
:10486000849F600D211D822F762F6A2F11249F5760
:1048700050409AF0F1F088234AF0EE0FFF1FBB1F63
:10488000661F771F881F91505040A9F79E3F510522
:1048900080F00C9460240C94AB245F3FE4F3983ECA
:1048A000D4F3869577956795B795F795E7959F5FCC
:1048B000C1F7FE2B880F911D9695879597F908955E
:1048C00097F99F6780E870E060E008959FEF80ECC3
:1048D000089500240A941616170618060906089566
:1048E00000240A9412161306140605060895092ECC
:1048F0000394000C11F4882352F0BB0F40F4BF2B3B
:1049000011F460FF04C06F5F7F4F8F4F9F4F08957A
:1049100057FD9058440F551F59F05F3F71F0479570
:10492000880F97FB991F61F09F3F79F08795089555
:10493000121613061406551FF2CF4695F1DF08C074
:10494000161617061806991FF1CF86957105610591
:1049500008940895E894BB2766277727CB0197F939
:1049600008950E94F324A59F900DB49F900DA49FDD
:10497000800D911D112408952F923F924F925F92C6
:104980006F927F928F929F92AF92BF92CF92DF925F
:10499000EF92FF920F931F93CF93DF93CDB7DEB7C4
:1049A000CA1BDB0B0FB6F894DEBF0FBECDBF099458
:1049B0002A88398848885F846E847D848C849B84AF
:1049C000AA84B984C884DF80EE80FD800C811B81BD
:1049D000AA81B981CE0FD11D0FB6F894DEBF0FBEEC
:1049E000CDBFED010895A29FB001B39FC001A39F69
:1049F000700D811D1124911DB29F700D811D112418
:104A0000911D0895AA1BBB1B51E107C0AA1FBB1F24
:104A1000A617B70710F0A61BB70B881F991F5A954A
:104A2000A9F780959095BC01CD01089597FB072EBD
:104A300016F4009407D077FD09D00E94022507FCE8
:104A400005D03EF4909581959F4F0895709561959E
:104A50007F4F0895A1E21A2EAA1BBB1BFD010DC0BA
:104A6000AA1FBB1FEE1FFF1FA217B307E407F5071E
:104A700020F0A21BB30BE40BF50B661F771F881FFA
:104A8000991F1A9469F760957095809590959B0190
:104A9000AC01BD01CF010895EE0FFF1F0590F49109
:104AA000E02D09940F931F93CF93DF9382309105EC
:104AB00010F482E090E0E091CF02F091D00220E08B
:104AC00030E0A0E0B0E0309719F1408151810281DF
:104AD000138148175907C8F08417950769F4109790
:104AE00031F012960C93129713961C9327C00093E3
:104AF000CF021093D00222C02115310519F04217C0
:104B0000530718F49A01BD01EF01DF01F801DBCF73
:104B100021153105F9F0281B390B2430310580F4BB
:104B20008A819B816115710521F0FB01938382834A
:104B300004C09093D0028093CF02FE01329644C00D
:104B4000FE01E20FF31F81939193225031093983C3
:104B500028833AC02091CD023091CE02232B41F41C
:104B600020910301309104013093CE022093CD02B5
:104B700020910101309102012115310541F42DB739
:104B80003EB74091050150910601241B350BE09181
:104B9000CD02F091CE02E217F307A0F42E1B3F0BDB
:104BA0002817390778F0AC014E5F5F4F241735079F
:104BB00048F04E0F5F1F5093CE024093CD02819379
:104BC000919302C0E0E0F0E0CF01DF91CF911F911F
:104BD0000F910895CF93DF93009709F481C0FC01F2
:104BE000329713821282A091CF02B091D002109717
:104BF00081F420813181820F931F2091CD02309169
:104C0000CE022817390751F5F093CE02E093CD027A
:104C100067C0ED0120E030E0CE17DF0740F44A81A5
:104C20005B819E0141155105F1F0EA01F5CFD38377
:104C3000C28340815181840F951FC817D90759F449
:104C400088819981840F951F0296918380838A8140
:104C50009B81938382832115310529F4F093D0023F
:104C6000E093CF023DC0E901FB83EA83499159916A
:104C7000C40FD51FEC17FD0761F480819181840F6B
:104C8000951F0296E90199838883828193819B8392
:104C90008A83E0E0F0E012968D919C911397009743
:104CA00019F0FD01DC01F7CF8D919C9111979D01C9
:104CB0002E5F3F4F820F931F2091CD023091CE0285
:104CC0002817390769F4309729F41092D00210920E
:104CD000CF0202C013821282B093CE02A093CD0203
:104CE000DF91CF910895A0E0B0E0E9E7F6E20C94FF
:104CF000C024EC01009721F4CB010E945225B4C0DE
:104D0000FC01E60FF71F9C0122503109E217F3075F
:104D100008F4A8C0D9010D911C9111970617170727
:104D2000B0F00530110508F49BC0C8010497861740
:104D3000970708F495C002501109061B170B019341
:104D400011936D937C93CF010E94EA2589C05B018A
:104D5000A01AB10A4C01800E911EA091CF02B09111
:104D6000D002612C712CE12CF12C109709F446C073
:104D70008D919C911197A815B905B1F56C0142E090
:104D8000C40ED11CCA14DB0478F14C018A189B08AC
:104D9000640142E0C40ED11C1296BC901297139687
:104DA000AC91B5E0CB16D10440F0B282A3839182DE
:104DB0008082D9016D937C9309C00E5F1F4F800FD5
:104DC000911FF90191838083EB2DFA2FE114F104F7
:104DD00031F0D7011396FC93EE93129741C0F093F4
:104DE000D002E093CF023CC06816790608F43C017B
:104DF0007D0112960D90BC91A02DB7CF8091CD0270
:104E00009091CE0288169906E1F466167706C8F4EA
:104E10008091010190910201009741F48DB79EB7F6
:104E20004091050150910601841B950BE817F90785
:104E3000C8F4F093CE02E093CD02F9017183608350
:104E40000FC0CB010E9452257C01009759F0A801A8
:104E5000BE010E943E27CE010E94EA25C70104C080
:104E6000CE0102C080E090E0CDB7DEB7EEE00C945A
:104E7000DC2481E090E0F8940C945527FB01DC01E0
:104E800002C001900D9241505040D8F70895DC01C6
:104E900001C06D9341505040E0F70895FB01DC01E3
:104EA00001900D920020E1F7089515E0C4EED5E0E1
:104EB00004C0FE010E944C252196C53ED107C9F7CA
:044EC000F894FFCF94
:104EC400010000D10280005E00BC007701000000F8
:104ED40000DC0DAF0D0C0EAC08A70D930D840D0076
:104EE40000000081090F060C0E0B0E3906AC089762
:104EF4000CAD088B0CBD089E0CAC08F706310CF207
:104F0400083609F507D8076B070C074F682C207380
:104F14006869742C206865726520776520676F2046
:104F2400616761696E2E2E2E0048656C6C6F2C20B3
:104F34005075707321003A0054656D702000203D57
:044F44002000430006
:107E0000112484B714BE81FFF0D085E080938100F7
:107E100082E08093C00088E18093C10086E0809377
:107E2000C20080E18093C4008EE0C9D0259A86E02C
:107E300020E33CEF91E0309385002093840096BBD3
:107E4000B09BFECF1D9AA8958150A9F7CC24DD24C4
:107E500088248394B5E0AB2EA1E19A2EF3E0BF2EE7
:107E6000A2D0813461F49FD0082FAFD0023811F036
:107E7000013811F484E001C083E08DD089C08234E0
:107E800011F484E103C0853419F485E0A6D080C0E4
:107E9000853579F488D0E82EFF2485D0082F10E0AE
:107EA000102F00270E291F29000F111F8ED06801E7
:107EB0006FC0863521F484E090D080E0DECF843638
:107EC00009F040C070D06FD0082F6DD080E0C81688
:107ED00080E7D80618F4F601B7BEE895C0E0D1E017
:107EE00062D089930C17E1F7F0E0CF16F0E7DF06D8
:107EF00018F0F601B7BEE89568D007B600FCFDCFD4
:107F0000A601A0E0B1E02C9130E011968C91119780
:107F100090E0982F8827822B932B1296FA010C0160
:107F200087BEE89511244E5F5F4FF1E0A038BF0790
:107F300051F7F601A7BEE89507B600FCFDCF97BE46
:107F4000E89526C08437B1F42ED02DD0F82E2BD052
:107F50003CD0F601EF2C8F010F5F1F4F84911BD097
:107F6000EA94F801C1F70894C11CD11CFA94CF0C13
:107F7000D11C0EC0853739F428D08EE10CD085E9AC
:107F80000AD08FE07ACF813511F488E018D01DD067
:107F900080E101D065CF982F8091C00085FFFCCF94
:107FA0009093C60008958091C00087FFFCCF809118
:107FB000C00084FD01C0A8958091C6000895E0E648
:107FC000F0E098E1908380830895EDDF803219F02E
:107FD00088E0F5DFFFCF84E1DECF1F93182FE3DFCA
:107FE0001150E9F7F2DF1F91089580E0E8DFEE27F6
:047FF000FF270994CA
:027FFE00040479
:0400000300007E007B
:00000001FF
