:100000000C945D000C9485000C9485000C94850084
:100010000C9485000C9485000C9485000C9485004C
:100020000C9485000C9485000C9485000C9485003C
:100030000C9485000C9485000C9485000C9485002C
:100040000C94C4010C9485000C9485000C948500DC
:100050000C9485000C9485000C9485000C9485000C
:100060000C9485000C94850000000008000201003B
:100070000003040700000000000000000000000072
:10008000250028002B0000000000240027002A0083
:10009000040404040404040402020202020203032E
:1000A0000303030301020408102040800102040836
:1000B0001020010204081020D30211241FBECFEF2C
:1000C000D8E0DEBFCDBF12E0A0E0B1E0EEE8F6E0A0
:1000D00002C005900D92A83FB107D9F723E0A8EF21
:1000E000B2E001C01D92A935B207E1F710E0CDE5FD
:1000F000D0E004C02197FE010E943F03CC35D10718
:10010000C9F70E942D020C9445030C94000090E066
:10011000FC01E859FF4F2491FC01EC55FF4F34914D
:10012000FC01E057FF4FE491EE2309F43CC0222389
:1001300039F1233091F038F42130A9F0223001F563
:1001400084B58F7D12C0273091F02830A1F0243083
:10015000B9F4809180008F7D03C0809180008F77FB
:10016000809380000DC084B58F7784BD09C08091D5
:10017000B0008F7703C08091B0008F7D8093B00076
:10018000F0E0EE0FFF1FE458FF4FA591B4919FB729
:10019000F894611104C08C913095382302C0EC9121
:1001A0003E2B3C939FBF08953FB7F8948091FD028A
:1001B0009091FE02A091FF02B091000326B5A89B8A
:1001C00005C02F3F19F00196A11DB11D3FBFBA2FE9
:1001D000A92F982F8827820F911DA11DB11DBC0149
:1001E000CD0142E0660F771F881F991F4A95D1F70E
:1001F00008958F929F92AF92BF92CF92DF92EF922B
:10020000FF926B017C010E94D4004B015C01C11480
:10021000D104E104F104F1F00E94D400DC01CB012F
:1002200088199909AA09BB09883E9340A105B1051F
:1002300070F321E0C21AD108E108F10888EE880EB7
:1002400083E0981EA11CB11CC114D104E104F10487
:1002500019F7DDCFFF90EF90DF90CF90BF90AF9078
:100260009F908F900895AF92BF92CF92DF92EF92BE
:10027000FF920F931F93CF93DF9300D0CDB7DEB7DC
:1002800069834A83880F991F00915703109158037F
:10029000000F111FE1E0F3E09F01215033402017D0
:1002A000310714F41192F8CF2981FC01EF5FFC4F64
:1002B00021838A81808360E0809155030E948700BA
:1002C0001016110634F501501109F801EF5FFC4FCB
:1002D000C080B0905303A090510387E0E82EF12C2A
:1002E000D12CB6010E2C02C0759567950A94E2F7E1
:1002F00061708A2D0E94870061E08B2D0E9487002B
:1003000060E08B2D0E94870081E0E81AF10848F731
:10031000D7CF61E0809155030F900F90DF91CF917F
:100320001F910F91FF90EF90DF90CF90BF90AF9013
:100330000C948700EF92FF921F93CF93DF9397FD6A
:100340001DC0209157033091580382179307B4F4CE
:10035000EC0123E0880F991F2A95E1F79C012F5E9D
:100360003C4F790111E0F70111927F0140E0612FCC
:10037000CE010E9433011F5F1930A9F7DF91CF91A1
:100380001F91FF90EF9008951F920F920FB60F925A
:1003900011242F933F938F939F93AF93BF9380919B
:1003A000F9029091FA02A091FB02B091FC02309107
:1003B000F80223E0230F2D3720F40196A11DB11D73
:1003C00005C026E8230F0296A11DB11D2093F80257
:1003D0008093F9029093FA02A093FB02B093FC027F
:1003E0008091FD029091FE02A091FF02B091000366
:1003F0000196A11DB11D8093FD029093FE02A09372
:10040000FF02B0930003BF91AF919F918F913F91F5
:100410002F910F900FBE0F901F90189590E0FC0148
:10042000EC55FF4F2491FC01E057FF4F8491882346
:1004300099F090E0880F991FFC01EA57FF4FA591B2
:10044000B491FC01E458FF4F859194918FB7F894D3
:10045000EC91E22BEC938FBF0895789484B5826081
:1004600084BD84B5816084BD85B5826085BD85B558
:10047000816085BD80916E00816080936E001092D6
:100480008100809181008260809381008091810051
:1004900081608093810080918000816080938000E2
:1004A0008091B10084608093B1008091B000816040
:1004B0008093B00080917A00846080937A0080916C
:1004C0007A00826080937A0080917A0081608093C4
:1004D0007A0080917A00806880937A001092C1003F
:1004E00080915703909158031816190634F441E08F
:1004F0006CE080E090E00E9433018091570390917E
:1005000058031816190634F44FE06AE080E090E0D2
:100510000E94330180E090E00E949A0120E0822E48
:1005200020E0922E90E0E92E91E0F92EC0E0D0E09C
:1005300081E0C82E83E0D82E570111E08091570347
:1005400090915803181619064CF4F5014081F601F4
:10055000408B612F80E090E00E9433011F5FFFEF2E
:10056000AF1ABF0A8FEFC81AD80A193039F764E6F4
:1005700070E080E090E00E94F900CE010E949A01B4
:1005800062E370E080E090E00E94F9002196E8E0EC
:10059000EE0EF11CCF33D10559F68114910411F2FE
:1005A0000E940000BFCFCF93DF93CCE0D0E0D09388
:1005B0005203C09351038BE090E0909354038093D7
:1005C00053038AE090E0909356038093550381E0B3
:1005D00090E090935803809357038CE00E940E02A2
:1005E000809153030E940E02809155030E940E02D7
:1005F00061E0809155030E948700D0935203C0931D
:100600005103E1E1F3E0119283E0E135F807D9F716
:10061000C0E0D0E08091570390915803C817D907E4
:100620005CF540E06FE0CE010E943301D7FD0CC0C5
:100630008091570390915803C817D9072CF447E0CD
:100640006BE0CE010E94330140E069E0CE010E94E0
:100650003301CE010E949A01D7FD0CC0809157034F
:1006600090915803C817D9072CF440E06CE0CE01F4
:100670000E9433012196CECFDF91CF910895EE0FE6
:0E068000FF1F0590F491E02D0994F894FFCF30
:10068E00000000100000000000000020000000002C
:10069E00000000400000000000000080000000008C
:1006AE00000080000000000000800000000000003C
:1006BE00800000000000000040000000000000006C
:1006CE0020000000000000001000000000000000EC
:1006DE000800000000000000040000000000000000
:1006EE0002000000000000000100000000000000F9
:1006FE0000010000000000000000010000000000EA
:10070E0000000001000000000000000001000000D9
:10071E0000000000000100000000000000000100C9
:10072E0000000000000000010000000000000002B8
:10073E00000000000000000400000000000000089F
:10074E00000000000000001000000000000000206B
:10075E0000000000000000400000000000000080CB
:10076E0000000000000080000000000000004000BB
:10077E00000000000000200000000000000010003B
:10078E00000000000000080000000000000004004F
:10079E000000000000000200000000000002000047
:1007AE00000000000004000000000000000800002F
:1007BE0000000000001000000000000000200000FB
:1007CE00000000000040000000000000008000005B
:1007DE00000000008000000000000000400000004B
:1007EE0000000000200000000000000010000000CB
:1007FE0000000000080000000000000004000000DF
:10080E0000000000020000000000000200000000D6
:10081E0000000200000000000002000000000000C6
:10082E0000040000000000000008000000000000AE
:10083E00001000000000000000200000000000007A
:10084E00004000000000000000004000000000001A
:10085E00000020000000000000001000000000005A
:10086E00000008000000000000000400000000006E
:08087E0000000004000000006E
:107E0000112484B714BE81FFF0D085E080938100F7
:107E100082E08093C00088E18093C10086E0809377
:107E2000C20080E18093C4008EE0C9D0259A86E02C
:107E300020E33CEF91E0309385002093840096BBD3
:107E4000B09BFECF1D9AA8958150A9F7CC24DD24C4
:107E500088248394B5E0AB2EA1E19A2EF3E0BF2EE7
:107E6000A2D0813461F49FD0082FAFD0023811F036
:107E7000013811F484E001C083E08DD089C08234E0
:107E800011F484E103C0853419F485E0A6D080C0E4
:107E9000853579F488D0E82EFF2485D0082F10E0AE
:107EA000102F00270E291F29000F111F8ED06801E7
:107EB0006FC0863521F484E090D080E0DECF843638
:107EC00009F040C070D06FD0082F6DD080E0C81688
:107ED00080E7D80618F4F601B7BEE895C0E0D1E017
:107EE00062D089930C17E1F7F0E0CF16F0E7DF06D8
:107EF00018F0F601B7BEE89568D007B600FCFDCFD4
:107F0000A601A0E0B1E02C9130E011968C91119780
:107F100090E0982F8827822B932B1296FA010C0160
:107F200087BEE89511244E5F5F4FF1E0A038BF0790
:107F300051F7F601A7BEE89507B600FCFDCF97BE46
:107F4000E89526C08437B1F42ED02DD0F82E2BD052
:107F50003CD0F601EF2C8F010F5F1F4F84911BD097
:107F6000EA94F801C1F70894C11CD11CFA94CF0C13
:107F7000D11C0EC0853739F428D08EE10CD085E9AC
:107F80000AD08FE07ACF813511F488E018D01DD067
:107F900080E101D065CF982F8091C00085FFFCCF94
:107FA0009093C60008958091C00087FFFCCF809118
:107FB000C00084FD01C0A8958091C6000895E0E648
:107FC000F0E098E1908380830895EDDF803219F02E
:107FD00088E0F5DFFFCF84E1DECF1F93182FE3DFCA
:107FE0001150E9F7F2DF1F91089580E0E8DFEE27F6
:047FF000FF270994CA
:027FFE00040479
:0400000300007E007B
:00000001FF
