:100000000C945D000C9485000C9485000C94850084
:100010000C9485000C9485000C9485000C9485004C
:100020000C9485000C9485000C9485000C9485003C
:100030000C9485000C9485000C9485000C9485002C
:100040000C9415020C9485000C9485000C9485008A
:100050000C9485000C9485000C9485000C9485000C
:100060000C9485000C94850000000008000201003B
:100070000003040700000000000000000000000072
:10008000250028002B0000000000240027002A0083
:10009000040404040404040402020202020203032E
:1000A0000303030301020408102040800102040836
:1000B0001020010204081020FC0211241FBECFEF03
:1000C000D8E0DEBFCDBF11E0A0E0B1E0E0EEF6E0A9
:1000D00002C005900D92A831B107D9F721E0A8E13F
:1000E000B1E001C01D92A937B207E1F710E0CDE5FC
:1000F000D0E004C02197FE010E946803CC35D107EF
:10010000C9F70E945F020C946E030C94000090E00B
:10011000FC01EC55FF4F2491FC01E057FF4F849107
:10012000882399F090E0880F991FFC01EA57FF4F50
:10013000A591B491FC01E458FF4F859194918FB73C
:10014000F894EC91E22BEC938FBF089590E0FC01C2
:10015000E859FF4F2491FC01EC55FF4F3491FC010D
:10016000E057FF4FE491EE2309F43CC0222339F11C
:10017000233091F038F42130A9F0223001F584B514
:100180008F7D12C0273091F02830A1F02430B9F4CF
:10019000809180008F7D03C0809180008F77809355
:1001A00080000DC084B58F7784BD09C08091B000F8
:1001B0008F7703C08091B0008F7D8093B000F0E016
:1001C000EE0FFF1FE458FF4FA591B4919FB7F8942D
:1001D000611104C08C913095382302C0EC913E2B04
:1001E0003C939FBF08953FB7F89480911D01909173
:1001F0001E01A0911F01B091200126B5A89B05C04A
:100200002F3F19F00196A11DB11D3FBFBA2FA92F95
:10021000982F8827820F911DA11DB11DBC01CD0112
:1002200042E0660F771F881F991F4A95D1F70895FE
:100230008F929F92AF92BF92CF92DF92EF92FF92F6
:100240006B017C010E94F3004B015C01C114D104DD
:10025000E104F104F1F00E94F300DC01CB01881904
:100260009909AA09BB09883E9340A105B10570F31D
:1002700021E0C21AD108E108F10888EE880E83E077
:10028000981EA11CB11CC114D104E104F10419F79A
:10029000DDCFFF90EF90DF90CF90BF90AF909F9019
:1002A0008F900895AF92BF92CF92DF92EF92FF921C
:1002B0000F931F93CF93DF9300D0CDB7DEB7698341
:1002C0004A83880F991F0091770110917801000FE0
:1002D000111FE1E2F1E09F01215231402017310767
:1002E00014F41192F8CF2981FC01EF5DFE4F2183B8
:1002F0008A81808360E0809175010E94A6001016BB
:10030000110634F501501109F801EF5DFE4FC08070
:10031000B0907301A090710187E0E82EF12CD12CF0
:10032000B6010E2C02C0759567950A94E2F76170CC
:100330008A2D0E94A60061E08B2D0E94A60060E03D
:100340008B2D0E94A60081E0E81AF10848F7D7CF6C
:1003500061E0809175010F900F90DF91CF911F9117
:100360000F91FF90EF90DF90CF90BF90AF900C94E3
:10037000A600EF92FF921F93CF93DF9397FD1DC0CE
:10038000209177013091780182179307B4F4EC0142
:1003900023E0880F991F2A95E1F79C012F5C3E4FBF
:1003A000790111E0F70111927F0140E0612FCE0148
:1003B0000E9452011F5F1930A9F7DF91CF911F9161
:1003C000FF90EF900895CF92DF92FF920F931F93CB
:1003D000CF93DF93062F10E06C01E80183E0CC0F90
:1003E000DD1F8A95E1F7CF5DDE4FFF24F394809106
:1003F000770190917801081719073CF4F6014081C4
:10040000488B6F2DC8010E945201F394FFEFCF1A61
:10041000DF0A219689E0F812EACFDF91CF911F9190
:100420000F91FF90DF90CF9008951F920F920FB61B
:100430000F9211242F933F938F939F93AF93BF936A
:100440008091190190911A01A0911B01B0911C019A
:100450003091180123E0230F2D3720F40196A11DC0
:10046000B11D05C026E8230F0296A11DB11D2093E2
:1004700018018093190190931A01A0931B01B09366
:100480001C0180911D0190911E01A0911F01B0914E
:1004900020010196A11DB11D80931D0190931E01A5
:1004A000A0931F01B0932001BF91AF919F918F91B5
:1004B0003F912F910F900FBE0F901F901895789439
:1004C00084B5826084BD84B5816084BD85B5826059
:1004D00085BD85B5816085BD80916E00816080930A
:1004E0006E00109281008091810082608093810073
:1004F0008091810081608093810080918000816083
:10050000809380008091B10084608093B1008091DD
:10051000B00081608093B00080917A008460809305
:100520007A0080917A00826080937A0080917A00CC
:10053000816080937A0080917A00806880937A004D
:100540001092C100C0E0D0E0C430D10519F4C0E081
:10055000D0E01FC08091770190917801C817D9072A
:100560002CF441E06CE0CE010E94520180917701B1
:1005700090917801C817D9072CF44FE06AE0CE01BA
:100580000E945201CE010E94B9012196DDCF0E9446
:10059000000080E090E00E94B90181E090E00E94BC
:1005A000B90182E090E00E94B90183E090E00E94EE
:1005B000B90168EE73E080E090E00E94180160E00D
:1005C00080E191E00E94E30161E088E091E00E9417
:1005D000E30162E080E191E00E94E30163E080E0FA
:1005E00091E00E94E30160ED77E080E090E00E94FE
:1005F0001801209771F2CBCFCF93DF93CCE0D0E0FE
:10060000D0937201C09371018BE090E090937401DC
:10061000809373018AE090E0909376018093750156
:1006200084E090E090937801809377018CE00E94C1
:100630008700809173010E948700809175010E945C
:10064000870061E0809175010E94A600D09372013D
:10065000C0937101E1E3F1E0119281E0E137F80725
:10066000D9F7C0E0D0E08091770190917801C81768
:10067000D9075CF540E06FE0CE010E945201D7FD42
:100680000CC08091770190917801C817D9072CF49C
:1006900047E06BE0CE010E94520140E069E0CE01EC
:1006A0000E945201CE010E94B901D7FD0CC0809179
:1006B000770190917801C817D9072CF440E06CE0DD
:1006C000CE010E9452012196CECFDF91CF910895A5
:1006D000EE0FFF1F0590F491E02D0994F894FFCFE1
:1006E000003C20203C043C000024242424243C0022
:0806F000003C243C2020200006
:107E0000112484B714BE81FFF0D085E080938100F7
:107E100082E08093C00088E18093C10086E0809377
:107E2000C20080E18093C4008EE0C9D0259A86E02C
:107E300020E33CEF91E0309385002093840096BBD3
:107E4000B09BFECF1D9AA8958150A9F7CC24DD24C4
:107E500088248394B5E0AB2EA1E19A2EF3E0BF2EE7
:107E6000A2D0813461F49FD0082FAFD0023811F036
:107E7000013811F484E001C083E08DD089C08234E0
:107E800011F484E103C0853419F485E0A6D080C0E4
:107E9000853579F488D0E82EFF2485D0082F10E0AE
:107EA000102F00270E291F29000F111F8ED06801E7
:107EB0006FC0863521F484E090D080E0DECF843638
:107EC00009F040C070D06FD0082F6DD080E0C81688
:107ED00080E7D80618F4F601B7BEE895C0E0D1E017
:107EE00062D089930C17E1F7F0E0CF16F0E7DF06D8
:107EF00018F0F601B7BEE89568D007B600FCFDCFD4
:107F0000A601A0E0B1E02C9130E011968C91119780
:107F100090E0982F8827822B932B1296FA010C0160
:107F200087BEE89511244E5F5F4FF1E0A038BF0790
:107F300051F7F601A7BEE89507B600FCFDCF97BE46
:107F4000E89526C08437B1F42ED02DD0F82E2BD052
:107F50003CD0F601EF2C8F010F5F1F4F84911BD097
:107F6000EA94F801C1F70894C11CD11CFA94CF0C13
:107F7000D11C0EC0853739F428D08EE10CD085E9AC
:107F80000AD08FE07ACF813511F488E018D01DD067
:107F900080E101D065CF982F8091C00085FFFCCF94
:107FA0009093C60008958091C00087FFFCCF809118
:107FB000C00084FD01C0A8958091C6000895E0E648
:107FC000F0E098E1908380830895EDDF803219F02E
:107FD00088E0F5DFFFCF84E1DECF1F93182FE3DFCA
:107FE0001150E9F7F2DF1F91089580E0E8DFEE27F6
:047FF000FF270994CA
:027FFE00040479
:0400000300007E007B
:00000001FF
