:100000000C9462000C948A000C948A000C948A0070
:100010000C948A000C948A000C948A000C948A0038
:100020000C948A000C948A000C948A000C948A0028
:100030000C948A000C948A000C948A000C948A0018
:100040000C94BA050C948A000C948A000C948A00D3
:100050000C948A000C948A000C948A000C948A00F8
:100060000C948A000C948A000000000023002600F3
:10007000290000000000240027002A0000000000E2
:10008000250028002B0004040404040404040202D4
:100090000202020203030303030301020408102007
:1000A0004080010204081020010204081020000012
:1000B0000008000201000003040700000000000027
:1000C0000000FC0811241FBECFEFD8E0DEBFCDBF7B
:1000D00011E0A0E0B1E0E6E0F7E102C005900D928A
:1000E000A437B107D9F721E0A4E7B1E001C01D9220
:1000F000A73FB207E1F710E0C2E6D0E004C02197C5
:10010000FE010E94760BC136D107C9F70E94040692
:100110000C94810B0C940000833081F028F4813022
:1001200099F08230A1F008958730A9F08830B9F0B5
:100130008430D1F4809180008F7D03C08091800055
:100140008F7780938000089584B58F7702C084B53F
:100150008F7D84BD08958091B0008F7703C080911A
:10016000B0008F7D8093B00008951F93CF93DF93ED
:10017000282F30E0F901E255FF4F8491F901E6564E
:10018000FF4FD491F901EA57FF4FC491CC23C1F03E
:10019000162F81110E948C00EC2FF0E0EE0FFF1F54
:1001A000E458FF4FA591B4919FB7F894111104C082
:1001B0008C91D095D82302C0EC91DE2BDC939FBFAD
:1001C000DF91CF911F910895CF93DF9390E0FC01D1
:1001D000E656FF4F2491FC01EA57FF4F8491882394
:1001E00061F190E0880F991FFC01EE58FF4FC59117
:1001F000D491FC01E458FF4FA591B491611109C05D
:100200009FB7F8948881209582238883EC912E23D0
:100210000BC0623061F49FB7F8948881322F30951B
:1002200083238883EC912E2B2C939FBF06C08FB71E
:10023000F894E8812E2B28838FBFDF91CF9108950A
:10024000CF93DF93EC0162E08D810E94E4002FB731
:10025000F8948091DB019091DC01A091DD01B091D7
:10026000DE012FBF805D9740A109B10989879A8778
:10027000AB87BC8787E38A8BDF91CF9108953FB727
:10028000F8948091D7019091D801A091D901B091B3
:10029000DA0126B5A89B05C02F3F19F00196A11DD4
:1002A000B11D3FBFBA2FA92F982F8827820F911D0C
:1002B000A11DB11DBC01CD0142E0660F771F881F53
:1002C000991F4A95D1F708958F929F92AF92BF924E
:1002D000CF92DF92EF92FF926B017C010E943F016F
:1002E0004B015C01C114D104E104F104F1F00E945E
:1002F0003F01DC01CB0188199909AA09BB09883E95
:100300009340A105B10570F321E0C21AD108E108BC
:10031000F10888EE880E83E0981EA11CB11CC11460
:10032000D104E104F10419F7DDCFFF90EF90DF90E5
:10033000CF90BF90AF909F908F900895CF92DF9213
:10034000EF92FF920F931F93CF93DF936C017A018B
:100350008B01C0E0D0E0CE15DF0581F0D8016D91B2
:100360008D01D601ED91FC910190F081E02DC60147
:100370000995892B11F02196EECF7E01C701DF91FF
:10038000CF911F910F91FF90EF90DF90CF90089544
:10039000CF92DF92EF92FF921F93CF93DF93EC0106
:1003A0001F81662311F0912F01C090E0288530E075
:1003B000220F331F28593F4FA0E0B0E0F9014591CB
:1003C0005491FA0180818123AD0160E070E09813BF
:1003D0000FC01196CD84DE84EF84F8884C155D053E
:1003E0006E057F0558F33FEF2FEF8FEF9FEF03C0B0
:1003F0003A2F252FCB01632F722FDF91CF911F91C1
:10040000FF90EF90DF90CF9008958F929F92AF92E0
:10041000BF92CF92DF92EF92FF920F931F93CF93F1
:10042000DF93CDB7DEB7C054D1400FB6F894DEBF2E
:100430000FBECDBF262F3FB7F8944091DB015091FE
:10044000DC016091DD017091DE013FBF211115C01B
:10045000FC0101851285238534856A017B01C01A60
:10046000D10AE20AF30AE0EDCE16E7E0DE06E10487
:10047000F10418F4FC018189C2C08C01FC014187A0
:1004800052876387748714821382128211821082CA
:1004900062E085810E94E40061E070E080E090E02D
:1004A0000E94640161E0F80185810E94E40060E03F
:1004B000F80185810E94B500F8018681855182305E
:1004C00028F48BE291E10197F1F706C064E170E056
:1004D00080E090E00E94640162E0F80185810E9462
:1004E000E400F801828990E08230910538F0880FAD
:1004F000991F880F991F05970197F1F7F89460E00D
:10050000C8010E94C8016F3F7F4F8F4F9F4F21F45A
:10051000F801118A789444C061E0C8010E94C801C2
:100520006F3F7F4F8F4F9F4F99F3CE0101967C0114
:100530005E019FEBA91A9EEFB90A670160E0C8014E
:100540000E94C801F601608371838283938361E016
:10055000C8010E94C801F60164837583868397836E
:10056000F8E0CF0ED11CCA14DB0441F7789420E0E8
:1005700030E0F70180809180A280B3804481558172
:1005800066817781FFEF8F169F06AF06BF0631F0B9
:100590004F3F8FEF58076807780721F4F801118A59
:1005A00080E02DC0F90183E0F595E7958A95E1F7A4
:1005B000E00FF11F8081880F84169506A606B70606
:1005C00008F4816080832F5F3F4FF8E0EF0EF11C4D
:1005D0002832310571F6F801248130E040818181B3
:1005E00090E0840F911D4281840F911D4381840FFF
:1005F000911D99272817390789F681E0818BC05C06
:10060000DE4F0FB6F894DEBF0FBECDBFDF91CF91A6
:100610001F910F91FF90EF90DF90CF90BF90AF9020
:100620009F908F900895CF92DF92EF92FF921F9349
:10063000CF93DF93EC0160E00E940502882309F468
:1006400066C08E818C3009F442C018F48B30C1F042
:100650005EC08551823008F05AC01A81612F6F77D1
:1006600070E0762F66278B81682B80E090E00E94F7
:10067000300A2DEC3CEC4CEC5DE30E94BE0A43C01A
:100680006A8170E080E090E00E94300A6B017C019A
:10069000CB81C7FF0AC09B01AC0160E070E080E83D
:1006A0009FEB0E948D096B017C016C2F6F7070E0D5
:1006B00080E090E00E94320A2DEC3CEC4CEC5DE3D3
:1006C0000E94BE0AA70196010E948E0924C01A81C9
:1006D0006B816F7070E080E090E00E94320A2DEC38
:1006E0003CEC4CEC5DE30E94BE0A6B017C01612F87
:1006F00070E080E090E00E94300A9B01AC01C701ED
:10070000B6010E948E0917FF06C0905804C060E031
:1007100070E080EC9FE7DF91CF911F91FF90EF9009
:10072000DF90CF900895CF92DF92EF92FF92CF9318
:10073000DF93EC0161E00E940502882399F18E812C
:100740008B3080F18D3098F08551823058F568817A
:10075000798176276727762780E090E00E94300A2B
:100760002DEC3CEC4CEC5DE30E94BE0A1FC069819D
:1007700070E080E090E00E94320A2DEC3CEC4CEC02
:100780005DE30E94BE0A6B017C01688170E080E03D
:1007900090E00E94320A9B01AC01C701B6010E94A1
:1007A0008E0904C060E070E080EC9FE7DF91CF919C
:1007B000FF90EF90DF90CF900895CF93DF93EC01FF
:1007C00060E08E810E94B50061E08E810E94B500DC
:1007D00060E08E810E94B5008BE891E00197F1F70F
:1007E000DF91CF910895CF92DF92EF92FF920F9316
:1007F0001F93CF93DF936C017C0187E0E80EF11C1F
:10080000C0E0D0E0062F10E0B8010C2E02C07595B4
:1008100067950A94E2F76170F70181917F010E9468
:10082000B5002196C430D10579F7C601DF91CF918B
:100830001F910F91FF90EF90DF90CF900C94DD030C
:10084000CF92DF92EF92FF920F931F93CF93DF939C
:10085000EC01F62E642F8C810E94B5008D818F3FB4
:1008600019F060E00E94B5008F850F2D10E084FF25
:1008700025C06E0187E0C80ED11CE12CF12CB80117
:100880000E2C02C0759567950A94E2F76170F60127
:1008900081916F010E94B500FFEFEF1AFF0A88E017
:1008A000E816F10461F7CE01DF91CF911F910F910E
:1008B000FF90EF90DF90CF900C94DD03B80184E0BF
:1008C000759567958A95E1F7CE010E94F3036F2D28
:1008D000CE01DF91CF911F910F91FF90EF90DF90AC
:1008E000CF900C94F30340E0682F8FED91E00C94CF
:1008F000200481E00E9473048BE39FE10197F1F7EC
:100900000895CF93DF93823028F09091EE019860A4
:100910009093EE018093F2011092F30180E48093B2
:10092000F40180E18093F50180E58093F60161E0B8
:100930008091E3010E94E4008091E4018F3F19F06F
:1009400061E00E94E40061E08091E5010E94E40022
:10095000CFEDD1E09E012F5D31408091EE0184FD0D
:1009600003C084E090E002C088E090E02196281760
:1009700039072CF461E08E810E94E400EBCF8BE319
:100980009DE00197F1F760E08091E3010E94B500DE
:1009900060E08091E5010E94B5008091E4018F3F05
:1009A00019F060E00E94B5008091EE0184FD20C046
:1009B00063E08FED91E00E94F303CBE4D6E4CE0137
:1009C0000197F1F763E08FED91E00E94F303219727
:1009D000F1F763E08FED91E00E94F30383E592E08D
:1009E0000197F1F762E08FED91E00E94F30315C0EB
:1009F00080620E9473048BE496E40197F1F7809182
:100A0000EE0180620E94730483E592E00197F1F7A2
:100A10008091EE0180620E9473048091EE018062F9
:100A20000E94730484E08093EF018CE00E947304C1
:100A30000E94790482E08093F00186E0DF91CF91FB
:100A40000C94730482E00E9473048BE39FE101978E
:100A5000F1F7089541E00E94200481E090E00895BC
:100A6000089580E090E00895009769F0FC010190FE
:100A70000020E9F73197AF01481B590BBC018FEDFE
:100A800091E00C949E0180E090E008950C94340570
:100A90008F929F92AF92BF92CF92DF92EF92FF928E
:100AA000CF93DF93CDB7DEB7A1970FB6F894DEBF33
:100AB0000FBECDBF6C01990FEE08FF08F7FE2AC0EC
:100AC00041E06DE28FED91E00E9420042227332760
:100AD000A9012C193D094E095F0919A2CE01819681
:100AE0007C019AE0892E912CA12CB12CCA01B9016C
:100AF000A50194010E94540B605DF70162937F0190
:100B0000211531054105510589F7CF010E943405B2
:100B100001961DC0A701960119A2CE0181967C0104
:100B20008AE0882E912CA12CB12CCA01B901A50113
:100B300094010E94540B605DF70162937F012115BF
:100B400031054105510589F7CF010E943405A19671
:100B50000FB6F894DEBF0FBECDBFDF91CF91FF90EF
:100B6000EF90DF90CF90BF90AF909F908F900895BF
:100B70000E947C0B1F920F920FB60F9211242F939D
:100B80003F938F939F93AF93BF938091DB0190919D
:100B9000DC01A091DD01B091DE013091D60123E0AE
:100BA000230F2D3720F40196A11DB11D05C026E8A5
:100BB000230F0296A11DB11D2093D6018093DB0166
:100BC0009093DC01A093DD01B093DE018091D70109
:100BD0009091D801A091D901B091DA010196A11D9F
:100BE000B11D8093D7019093D801A093D901B09300
:100BF000DA01BF91AF919F918F913F912F910F900B
:100C00000FBE0F901F901895CF93DF93CDB7DEB72F
:100C100064970FB6F894DEBF0FBECDBF789484B54D
:100C2000826084BD84B5816084BD85B5826085BDE8
:100C300085B5816085BD80916E00816080936E0076
:100C40001092810080918100826080938100809168
:100C50008100816080938100809180008160809319
:100C600080008091B10084608093B1008091B000D9
:100C700081608093B00080917A00846080937A00D4
:100C800080917A00826080937A0080917A008160FE
:100C900080937A0080917A00806880937A00109225
:100CA000C1008DEA91E00E9420018AE991E00E9452
:100CB000200187E891E00E94200184E791E00E94F2
:100CC000200182E00E9481048CE091E00E944605B0
:100CD00068EE73E080E090E00E9464010E94790475
:100CE0000E94220560E080E00E94E40090E0292E4E
:100CF00090E0392E00E210E0EEEAF0E08491EAE9BB
:100D0000F0E0F490E6E8F0E0E490EE2009F442C070
:100D100081110E948C00EE2DF0E0EE0FFF1FE859CC
:100D2000FF4FA591B4918C91F822A1F10E94790412
:100D30000E94220587E691E00E9446058091C2014B
:100D40009091C3010E944805E091F201E23008F061
:100D500042C2E150F0E0E152FE4F848980680E9477
:100D600073048DE191E00E9446058091C00190914D
:100D7000C1010E94480568E873E180E090E00E94AC
:100D800064010E9479040E9422051092D5011092FC
:100D9000D4011AC28091D4019091D501009709F035
:100DA0001EC20E9479040E9422058BE291E00E94FB
:100DB000460560ED77E080E090E00E9464018DEAF6
:100DC00091E00E9493030E94FA092B013C01709369
:100DD000CB016093CA018AE991E00E9493030E94CB
:100DE000FA094B015C017093C9016093C80187E85F
:100DF00091E00E9493030E94FA0969837A838B83AE
:100E00009C8329813A813093C7012093C60184E7EE
:100E100091E00E9493030E94FA096D837E838F8381
:100E200098878D819E819093C5018093C4018DEA3E
:100E300091E00E9413030E94FA0969877A878B87E1
:100E40009C87E985FA85F093D301E093D2018AE982
:100E500091E00E9413030E94FA096D877E878F87B5
:100E6000988B2D853E853093D1012093D00187E862
:100E700091E00E9413030E94FA09698B7A8B8B8B95
:100E80009C8B89899A899093CF018093CE0184E7C6
:100E900091E00E9413030E94FA096B017C01709398
:100EA000CD016093CC01B201550C880B990B0E94C7
:100EB000320A9B01AC010E942B0B882331F0EFEF2B
:100EC000FFEFF093CB01E093CA01B401990C880BBA
:100ED000990B0E94320A9B01AC010E942B0B8823C4
:100EE00031F02FEF3FEF3093C9012093C801E98122
:100EF000FA81BF01FF0F880B990B0E94320A9B01F8
:100F0000AC010E942B0B882331F02FEF3FEF309381
:100F1000C7012093C601ED81FE81BF01FF0F880B41
:100F2000990B0E94320A9B01AC010E942B0B882373
:100F300031F02FEF3FEF3093C5012093C401E985D5
:100F4000FA85BF01FF0F880B990B0E94320A9B01A3
:100F5000AC010E942B0B882331F02FEF3FEF309331
:100F6000D3012093D201ED85FE85BF01FF0F880BD1
:100F7000990B0E94320A9B01AC010E942B0B882323
:100F800031F02FEF3FEF3093D1012093D001E98969
:100F9000FA89BF01FF0F880B990B0E94320A9B014F
:100FA000AC010E942B0B882331F02FEF3FEF3093E1
:100FB000CF012093CE01B601DD0C880B990B0E9466
:100FC000320A9B01AC010E942B0B882331F08FEF7A
:100FD0009FEF9093CD018093CC018091D2019091AD
:100FE000D3012091C2013091C3012817390724F49D
:100FF0009093C3018093C2018091D0019091D1015F
:101000002091C2013091C3012817390724F490932D
:10101000C3018093C2018091CE019091CF012091B4
:10102000C2013091C3012817390724F49093C301FA
:101030008093C2018091CC019091CD012091C20199
:101040003091C3012817390724F49093C30180938A
:10105000C2012091CA013091CB018091C2019091CF
:10106000C3018217930724F43093C1012093C00178
:101070002091C8013091C9018217930724F430935D
:10108000C1012093C0012091C6013091C701821790
:10109000930724F43093C1012093C0012091C4012F
:1010A0003091C5018217930724F43093C101209336
:1010B000C0011093D5010093D4010E9479040E94CD
:1010C00022058CE391E00E9446058091D201909127
:1010D000D3010E94480581E491E00E94460584E422
:1010E00091E00E9446058091D0019091D1010E942B
:1010F000480581E491E00E94460589E491E00E9460
:1011000046058091CE019091CF010E94480581E46F
:1011100091E00E9446058EE491E00E944605809190
:10112000CC019091CD010E94480581E491E00E949C
:101130004605E091F201E23008F04FC0E150F0E0E6
:10114000E152FE4F848980680E94730483E591E038
:101150000E9446058091CA019091CB010E944805EA
:1011600081E491E00E94460588E591E00E944605F1
:101170008091C8019091C9010E94480581E491E0E5
:101180000E9446058DE591E00E9446058091C601CA
:101190009091C7010E94480581E491E00E944605B4
:1011A00082E691E00E9446058091C4019091C501BC
:1011B0000E94480581E491E00E94460560E971E0E3
:1011C00080E090E00E9464012114310409F494CD80
:1011D0000E94000091CDE1E0BDCDE1E0B0CF0197EC
:1011E0009093D5018093D40188E10E9473046CE24E
:1011F00071E080E090E0E6CFCF93EFEDF1E0138275
:10120000128284E091E0918380838CE084838FEF6D
:101210008583CBE0C68385E0878384E0808783E095
:10122000818782E082871386148615861686178644
:1012300081E00E948104ADEAB1E089E015968C93CB
:1012400015971696CC931697E3EAF0E0E49117967B
:10125000EC931797EFE8F0E0E4911896EC93189769
:1012600040E85EE360E070E01D964D935D936D9302
:101270007C935097AAE9B1E088E015968C93159776
:101280001696CC931697E2EAF0E0E4911796EC9369
:101290001797EEE8F0E0E4911896EC9318971D96F6
:1012A0004D935D936D937C935097A7E8B1E087E0F1
:1012B00015968C9315971696CC931697E1EAF0E065
:1012C000E4911796EC931797EDE8F0E0E491189607
:1012D000EC9318971D964D935D936D937C93509767
:1012E000A4E7B1E086E015968C9315971696CC93FB
:1012F0001697E0EAF0E0E4911796EC931797ECE884
:10130000F0E0E4911896EC9318971D964D935D9339
:101310006D937C935097CF9108955058BB27AA277F
:101320000E94A5090C94840A0E94760A38F00E9453
:101330007D0A20F039F49F3F19F426F40C94730AC7
:101340000EF4E095E7FB0C946D0AE92F0E94950AD4
:1013500058F3BA17620773078407950720F079F4EA
:10136000A6F50C94B70A0EF4E0950B2EBA2FA02D1B
:101370000B01B90190010C01CA01A0011124FF2742
:10138000591B99F0593F50F4503E68F11A16F0403D
:10139000A22F232F342F4427585FF3CF469537953C
:1013A0002795A795F0405395C9F77EF41F16BA0B01
:1013B000620B730B840BBAF09150A1F0FF0FBB1FAF
:1013C000661F771F881FC2F70EC0BA0F621F731FF8
:1013D000841F48F4879577956795B795F7959E3F55
:1013E00008F0B0CF9395880F08F09927EE0F9795E6
:1013F000879508950E94010A6894B1110C94B80A67
:1014000008950E949D0A88F09F5798F0B92F992758
:10141000B751B0F0E1F0660F771F881F991F1AF0DF
:10142000BA95C9F714C0B13091F00E94B70AB1E083
:1014300008950C94B70A672F782F8827B85F39F082
:10144000B93FCCF3869577956795B395D9F73EF478
:1014500090958095709561957F4F8F4F9F4F089520
:10146000E89409C097FB3EF490958095709561953E
:101470007F4F8F4F9F4F9923A9F0F92F96E9BB27F4
:101480009395F695879577956795B795F111F8CF70
:10149000FAF4BB0F11F460FF1BC06F5F7F4F8F4FDB
:1014A0009F4F16C0882311F096E911C0772321F0D1
:1014B0009EE8872F762F05C0662371F096E8862F69
:1014C00070E060E02AF09A95660F771F881FDAF7C0
:1014D000880F9695879597F9089597F99F6780E803
:1014E00070E060E008959FEF80EC089500240A9476
:1014F0001616170618060906089500240A941216EF
:101500001306140605060895092E0394000C11F421
:10151000882352F0BB0F40F4BF2B11F460FF04C0CE
:101520006F5F7F4F8F4F9F4F089557FD9058440F27
:10153000551F59F05F3F71F04795880F97FB991F32
:1015400061F09F3F79F087950895121613061406EF
:10155000551FF2CF4695F1DF08C01616170618067C
:10156000991FF1CF86957105610508940895E89457
:10157000BB2766277727CB0197F908950E94D10AE8
:101580000C94840A0E94760A38F00E947D0A20F0AA
:10159000952311F00C946D0A0C94730A11240C9489
:1015A000B80A0E94950A70F3959FC1F3950F50E019
:1015B000551F629FF001729FBB27F00DB11D639F05
:1015C000AA27F00DB11DAA1F649F6627B00DA11DAB
:1015D000661F829F2227B00DA11D621F739FB00D51
:1015E000A11D621F839FA00D611D221F749F3327C1
:1015F000A00D611D231F849F600D211D822F762F5A
:101600006A2F11249F5750409AF0F1F088234AF036
:10161000EE0FFF1FBB1F661F771F881F91505040A2
:10162000A9F79E3F510580F00C946D0A0C94B80AFE
:101630005F3FE4F3983ED4F3869577956795B79529
:10164000F795E7959F5FC1F7FE2B880F911D969543
:10165000879597F908950E94300B880B990B089590
:10166000990F0008550FAA0BE0E8FEEF16161706B3
:10167000E807F907C0F012161306E407F50798F01B
:10168000621B730B840B950B39F40A2661F0232B34
:10169000242B252B21F408950A2609F4A140A695B0
:1016A0008FEF811D811D0895A1E21A2EAA1BBB1B7D
:1016B000FD010DC0AA1FBB1FEE1FFF1FA217B3071E
:1016C000E407F50720F0A21BB30BE40BF50B661F34
:1016D000771F881F991F1A9469F7609570958095F8
:1016E00090959B01AC01BD01CF010895EE0FFF1F46
:1016F0000590F491E02D099481E090E0F8940C9429
:06170000810BF894FFCFFD
:10170600000000002A059E01310530052048656C61
:101716006C6F2C205075707321212120004D61784B
:101726002E2048756D69642E3A20005570646174E8
:10173600696E6720696E666F2E2E2E00542E313D1F
:10174600003B2000542E323D00542E333D00542ED3
:10175600343D00482E313D00482E323D00482E33A0
:101766003D00482E343D004D61782E2054656D7045
:041776002E3A2000E7
:00000001FF
