:100000000C94A2000C94CA000C94CA000C94CA0070
:100010000C94CA000C94CA000C94CA000C94CA0038
:100020000C94CA000C94CA000C94CA000C94CA0028
:100030000C94CA000C94CA000C94CA000C94CA0018
:100040000C940E030C94CA000C94CA000C94CA00C1
:100050000C94CA000C94CA000C94CA000C94CA00F8
:100060000C94CA000C94CA007E306D79335B5F70CB
:100070007F7B771F0D3D4F47000000000000000010
:100080000000000000000000000000000000000070
:1000900000000000800180007E306D79335B5F706E
:1000A0007F7B00000000000000771F0D3D4F4700E0
:1000B000370000000E000000670000000000000094
:1000C000000000000000000800771F0D3D4F4700B2
:1000D000370000000E00151D670000000000000042
:1000E00000000000000000000000000024002700C5
:1000F0002A0000000000250028002B00000000005E
:100100002300260029000404040404040404020259
:100110000202020203030303030301020408102086
:100120004080010204081020010204081020000091
:1001300000080002010000030407000000000000A6
:100140000000A40511241FBECFEFD8E0DEBFCDBF55
:1001500011E0A0E0B1E0ECEDFCE002C005900D92F2
:10016000AE31B107D9F721E0AEE1B1E001C01D9297
:10017000A03FB207E1F710E0C2EAD0E004C0219747
:10018000FE010E946606C13AD107C9F70E945803D2
:100190000C946C060C94000096E0899FD001112409
:1001A000A75DBE4F90967C936E935F9791E091967A
:1001B0009C93919790919501E0919601F091970110
:1001C000992339F0309751F0811108C08091450191
:1001D00004C0309719F05C968C9109940895CF92E1
:1001E000DF92EF92FF920F931F9396E0899FF001A9
:1001F0001124E75DFE4F11A2278D30A1213031057A
:1002000039F158F02230310509F447C02330310567
:1002100009F04FC060E070E044C0662309F449C0B3
:1002200061E070E00E94CC002FB7F8948091250126
:1002300090912601A0912701B09128012FBF8093B2
:10024000810190938201A0938301B093840131C016
:100250009FB7F894C0902501D0902601E090270127
:10026000F09028019FBF009181011091820120919F
:10027000830130918401C01AD10AE20AF30A009185
:1002800093011091940120E030E00C151D052E051E
:100290003F0518F462E070E004C061110AC063E039
:1002A00070E01F910F91FF90EF90DF90CF900C9432
:1002B000CC001F910F91FF90EF90DF90CF900895A9
:1002C000833081F028F4813099F08230A1F00895D4
:1002D0008730A9F08830B9F08430D1F48091800063
:1002E0008F7D03C0809180008F7780938000089578
:1002F00084B58F7702C084B58F7D84BD08958091C9
:10030000B0008F7703C08091B0008F7D8093B000E4
:100310000895CF93DF93282F30E0F901E25DFE4F7F
:100320008491F901E65EFE4FD491F901EA5FFE4F38
:10033000C491CC2391F081110E946001EC2FF0E078
:10034000EE0FFF1FE450FF4FA591B491EC91ED2308
:1003500081E090E021F480E002C080E090E0DF9155
:10036000CF9108951F93CF93DF93282F30E0F901A9
:10037000E25DFE4F8491F901E65EFE4FD491F901F2
:10038000EA5FFE4FC491CC23C1F0162F81110E9469
:100390006001EC2FF0E0EE0FFF1FEE50FF4FA59134
:1003A000B4919FB7F894111104C08C91D095D823C3
:1003B00002C0EC91DE2BDC939FBFDF91CF911F91A8
:1003C0000895CF93DF9390E0FC01E65EFE4F249109
:1003D000FC01EA5FFE4F8491882361F190E0880F71
:1003E000991FFC01E851FF4FC591D491FC01EE50DB
:1003F000FF4FA591B491611109C09FB7F89488810E
:10040000209582238883EC912E230BC0623061F407
:100410009FB7F8948881322F309583238883EC919D
:100420002E2B2C939FBF06C08FB7F894E8812E2BFC
:1004300028838FBFDF91CF9108953FB7F8948091C3
:10044000210190912201A0912301B091240126B5B0
:10045000A89B05C02F3F19F00196A11DB11D3FBFFC
:10046000BA2FA92F982F8827820F911DA11DB11D8A
:10047000BC01CD0142E0660F771F881F991F4A9586
:10048000D1F708958F929F92AF92BF92CF92DF9251
:10049000EF92FF926B017C010E941D024B015C01F7
:1004A000C114D104E104F104F1F00E941D02DC0149
:1004B000CB0188199909AA09BB09883E9340A10577
:1004C000B10570F321E0C21AD108E108F10888EE05
:1004D000880E83E0981EA11CB11CC114D104E10454
:1004E000F10419F7DDCFFF90EF90DF90CF90BF9030
:1004F000AF909F908F900895862F642F0C94E10108
:10050000862F642F0C94B201862F0C948901AF9230
:10051000BF92CF92DF92EF92FF920F931F93CF93F0
:10052000DF9300D0CDB7DEB769834A83880F991F68
:100530000091EE011091EF01000F111FE8E9F1E0C9
:100540009F01285931402017310714F41192F8CF38
:100550002981FC01E856FE4F21838A81808360E077
:100560008091EC010E94B2011016110634F5015081
:100570001109F801E856FE4FC080B090EA01A09042
:10058000E80187E0E82EF12CD12CB6010E2C02C038
:10059000759567950A94E2F761708A2D0E94B20101
:1005A00061E08B2D0E94B20160E08B2D0E94B201B0
:1005B00081E0E81AF10848F7D7CF61E08091EC01BB
:1005C0000F900F90DF91CF911F910F91FF90EF90BF
:1005D000DF90CF90BF90AF900C94B201EF92FF925A
:1005E0000F931F93CF937C018C0183E0000F111FA9
:1005F0008A95E1F708551E4FC1E0F80111928F016D
:1006000040E06C2FC7010E948702CF5FC930A9F775
:10061000CF911F910F91FF90EF9008951F920F922D
:100620000FB60F9211242F933F938F939F93AF9305
:10063000BF938091250190912601A0912701B0914F
:1006400028013091200123E0230F2D3720F401965B
:10065000A11DB11D05C026E8230F0296A11DB11DE5
:10066000209320018093250190932601A0932701D8
:10067000B09328018091210190912201A091230142
:10068000B09124010196A11DB11D80932101909389
:100690002201A0932301B0932401BF91AF919F91B8
:1006A0008F913F912F910F900FBE0F901F90189533
:1006B000789484B5826084BD84B5816084BD85B53D
:1006C000826085BD85B5816085BD80916E00816049
:1006D00080936E00109281008091810082608093EF
:1006E00081008091810081608093810080918000F1
:1006F0008160809380008091B10084608093B1001C
:100700008091B00081608093B00080917A00846015
:1007100080937A0080917A00826080937A00809141
:100720007A00816080937A0080917A00806880935B
:100730007A001092C1008091EE019091EF0118169D
:10074000190634F441E06CE080E090E00E948702FA
:100750008091EE019091EF011816190634F448E0EB
:100760006AE080E090E00E9487028091EE01909123
:10077000EF011816190624F480E090E00E94EE02C2
:10078000812C912C5401839444244A94542C60E885
:10079000C62ED12C51E0509395018FB7F89440911B
:1007A00025015091260160912701709128018FBF8A
:1007B0008091850190918601A0918701B091880177
:1007C000481B590B6A0B7B0B809191019091920110
:1007D000A0E0B0E084179507A607B707D8F6C0E0F9
:1007E00080918F01C81710F0312C40C0E0918B012F
:1007F000F0918C01EC0FF11D62E080810E94E1011B
:10080000CF5FEECFC22DD0E0E0918B01F0918C0153
:10081000EC0FFD1F80810E9489012496CC0FDD1F03
:10082000C75DDE4F892B09F04BC0888199818629ED
:10083000972999838883239480918F01281610F338
:10084000E0918D01F0918E01E00FF11F61E0808158
:100850000E94B20180918D0190918E01FC01E00F08
:10086000F11F60E080810E94E1013394809190014A
:10087000381658F5032D10E0E0918D01F0918E01AE
:10088000E00FF11F61E080810E94E101E0918D01A4
:10089000F0918E01E00FF11F60E080810E94B201B3
:1008A000D501C401032C04C0880F991FAA1FBB1FC8
:1008B0000A94D2F73C017C01E094F094212CBCCF47
:1008C000888199818E219F21B4CFC9E2D1E0FE01B8
:1008D000878D90A1892B21F4148E568E458E11A2FE
:1008E000369681E0E536F80799F7F12C80918F0173
:1008F000F81658F5E12C0F2D10E0000F111F0F5CBA
:100900001E4F20919001E216F0F4F80140815181D0
:100910000E2C02C0569547950A94E2F7642F617039
:10092000F29E900111242E0D311DE9E2F1E080E0EC
:10093000A58DB68D2A173B0709F4FCC08F5F36964C
:100940008A30B1F7DAC0F394D1CF80E099A1911148
:1009500081E0269691E0C536D907C1F79FB7F89494
:100960004091250150912601609127017091280145
:100970009FBF4093850150938601609387017093D8
:100980008801882309F406CF80914A01882309F45D
:1009900001CF8091480190914901019709F0FACE69
:1009A000E0914501EE2309F4F5CE8091EE0190919E
:1009B000EF01E33209F464C0EA3209F06DC0C8E91E
:1009C000D1E08E0177247394EE24E394F12C80918E
:1009D000EE019091EF011816190684F4F801408990
:1009E000C6010E2C02C0959587950A94E2F7482B14
:1009F000408B672D80E090E00E94870264E670E003
:100A000080E090E00E944202FFEFEF1AFF0A58E0F8
:100A1000E516F104E1F60F5F1F4F739485E078123D
:100A2000D3CF68EE73E080E090E00E94420284E061
:100A3000F82E07E010E08091EE019091EF0118167A
:100A4000190684F4A601002E02C0559547950A9414
:100A5000E2F740958B8948234B8B6F2D80E090E027
:100A60000E94870264E670E080E090E00E9442020B
:100A70000150110901F72197FA94F110DACF36C02D
:100A80001816190624F480E090E00E94EE021092FD
:100A90001F0110921E012AC020911E0130911F01DA
:100AA0002430310521F410921F0110921E01C091D3
:100AB0001E01D0911F01181619069CF4C830D105EB
:100AC00080F4E7FDE0E2F0E0E859FF4F4491FE01D9
:100AD000E856FE4F408B6C2F6F5F80E090E00E94E5
:100AE00087022196D0931F01C0931E01E0E0F0E041
:100AF000309709F44FCE09954DCE40FF1DC0E9E275
:100B0000F1E080E090E0448D411118C0E09189014E
:100B1000F0918A01E20FF31F408156E0589FF001E7
:100B2000599FF00D1124E75DFE4F448F368F258FBE
:100B300010A2178E0E94EF00E394E3CE0196369642
:100B40008A30910501F7F8CFCF93DF93CCE0D0E066
:100B5000D093E901C093E8018BE090E09093EB0122
:100B60008093EA018AE090E09093ED018093EC019C
:100B700081E090E09093EF018093EE0161E08CE0E2
:100B80000E94E10161E08091EA010E94E10161E0DF
:100B90008091EC010E94E10161E08091EC010E94F2
:100BA000B201D093E901C093E801E8EAF1E088EEF0
:100BB00091E011928E179F07E1F7C0E0D0E080919D
:100BC000EE019091EF01C817D90794F540E06FE06E
:100BD000CE010E948702D7FD0CC08091EE0190915A
:100BE000EF01C817D9072CF447E06BE0CE010E9453
:100BF000870240E069E0CE010E948702D7FD16C05F
:100C00008091EE019091EF01C817D9071CF4CE0135
:100C10000E94EE028091EE019091EF01C817D90772
:100C20002CF440E06CE0CE010E9487022196C7CFF1
:100C300010922B0110922F0110922E011092300170
:100C400087E191E090932A0180932901E9E2F1E0A4
:100C5000148E10A2178E11A2369681E0E536F807A1
:100C6000B9F783E091E090938C0180938B0180E051
:100C700091E090938E0180938D0184E080938F01A9
:100C800083E08093900187E091E090938A018093C4
:100C900089018AE090E0909392018093910184EF22
:100CA00091E0909394018093930110929701109298
:100CB0009601109285011092860110928701109280
:100CC000880110929501DF91CF910895EE0FFF1FDB
:0C0CD0000590F491E02D0994F894FFCFFA
:100CDC000605040302010031323334353637383916
:0E0CEC002A3023000000007C028002840200F7
:00000001FF
